:10000000B5C10000E4C10000E2C10000E0C1000091
:10001000DEC10000DCC10000DAC10000D8C1000070
:10002000D6C10000D4C10000D2C10000D0C1000080
:10003000CEC10000CCC10000CAC10000C8C1000090
:10004000C6C10000C4C10000C2C10000C0C10000A0
:10005000BEC10000BCC10000BAC100000C94D514A0
:10006000B6C100000C9467140C943E14B0C100009B
:10007000AEC10000ACC10000AAC10000A8C10000D0
:10008000A6C10000A4C10000A2C10000A0C10000E0
:100090000C9415140C94EC139AC1000098C1000044
:1000A00096C1000094C1000092C1000090C1000000
:1000B0008EC100008CC100008AC1000088C1000010
:1000C00086C1000084C1000082C1000080C1000020
:1000D0007EC100007CC100007AC1000078C1000030
:1000E00076C10000F71E001F121F3A1F531F751F15
:1000F0008C1F434C4F5345204F4B0D0A0045525225
:100100004F520D0A00414C524541445920434F4E35
:100110004E4543540D0A00434F4E4E45435420462E
:1001200041494C0D0A00434F4E4E454354204F4B1E
:100130000D0A00222C00222C220022544350002BB6
:1001400043495053544152543D002B43495053535B
:100150004C3D002B434950434C4F53453D000D0A45
:1001600044415441204143434550543A003E002B02
:1001700043495053454E443D002B43495052584744
:1001800045543A002B43495052584745543D322C70
:10019000002C22494E495449414C22002C22434C08
:1001A0004F53494E4722002C22434C4F5345442283
:1001B000002C22434F4E4E454354454422002B43CE
:1001C00049505354415455533D002B4349505258C4
:1001D0004745543A002B43495052584745543D3403
:1001E0002C00434C4F5345440D0A000D0A2B434944
:1001F0005052584745543A004E4F5420494E5345AB
:10020000525445440053494D2050554B0053494DDD
:100210002050494E005245414459000D0A2B43508D
:10022000494E3A002B4350494E3F00453000264688
:100230005A002B4346554E3D312C31002B43465539
:100240004E3D30000D0A2B435245473A002B435296
:1002500045473F002B43444E534346473D22382EEB
:10026000382E382E38222C22382E382E342E342296
:10027000002B43494653523B4530002B43474154E2
:10028000543D30002B43495053485554002B4349AB
:10029000494352002200222C2200222C22002B4310
:1002A0005354543D22002B43495052584745543D26
:1002B00031002B4349505153454E443D31002B43AF
:1002C00049504D55583D31002B43474154543D3121
:1002D000002B53415042523D322C31002B534150A0
:1002E00042523D312C31002B43474143543D312C88
:1002F00031002B434744434F4E543D312C2249504B
:10030000222C22002B53415042523D332C312C22BF
:10031000505744222C22002B53415042523D332C43
:10032000312C2255534552222C22002B534150424E
:10033000523D332C312C2241504E222C22002B5383
:10034000415042523D332C312C22436F6E747970F0
:1003500065222C224750525322004552524F520DD3
:100360000A004F4B0D0A000022217F1A11241FBEE4
:10037000CFEFD1E2DEBFCDBF00E00CBF26E0A6E8A4
:10038000B4E001C01D92A638B207E1F714E0A0E086
:10039000B2E0E0E8FDE400E00BBF02C007900D9280
:1003A000A638B107D9F711E0C5EBD1E000E006C0EF
:1003B00021970109802FFE010E945924C43BD107D7
:1003C00080E00807A9F70E94891A0C94AF2618CE7E
:1003D000DC01ED91FC910688F789E02D199591E0FB
:1003E000811101C090E0892F0895CF93DF93EC0134
:1003F000E881F9810084F185E02D1995892B11F4AC
:100400008D8901C081E0DF91CF910895DC011C96B8
:10041000ED91FC911D9780819181DC01ED91FC9122
:100420000680F781E02D19948FEF9FEF0895CF9309
:10043000DF931F92CDB7DEB7DC01ED91FC9102880E
:10044000F389E02D41E050E0BE016F5F7F4F1995C9
:10045000019719F4898190E002C08FEF9FEF0F9010
:10046000DF91CF910895CF93DF931F92CDB7DEB781
:100470006983DC01ED91FC910280F381E02D41E084
:1004800050E0BE016F5F7F4F19950F90DF91CF91C4
:100490000895FC0141A752A763A774A70895FC0122
:1004A00061A572A583A594A5089521E0FC0184852A
:1004B0009585892B09F420E0822F0895DC011C9694
:1004C0008D919C911D97DC01ED91FC910688F78937
:1004D000E02D1994DC011C968D919C911D97DC01F7
:1004E000ED91FC910088F189E02D19940F931F93F1
:1004F000CF93DF9300D000D0CDB7DEB7DC011C96E0
:100500008D919C911D97DC01ED91FC910684F785FE
:10051000E02D23E832E03A832983DB0112960D9126
:100520001D912D913C9115970B831C832D833E8348
:10053000BE016F5F7F4F199526960FB6F894DEBF08
:100540000FBECDBFDF91CF911F910F910895DC01B8
:100550001C968D919C911D97DC01ED91FC9106807C
:10056000F781E02D1994DC011C968D919C911D97CB
:10057000DC01ED91FC910484F585E02D199480E077
:1005800090E00895EF92FF921F93CF93DF93EC01D9
:100590007B01142F68E972E0888199810E947E1A9C
:1005A000B701888199810E94BE0B412F50E060E025
:1005B00070E02AE0888199810E94290E6BE972E03F
:1005C000888199810E947E1A88819981DC01ED9150
:1005D000FC910680F781E02D199560E070E0CB0179
:1005E000DF91CF911F91FF90EF900C949114EF92B7
:1005F000FF920F931F93CF93DF93EC018B017A014E
:10060000888D998D029744F48C859D850E94720E89
:1006100082E090E0998F888F8C859D85DC01ED913B
:10062000FC910280F381E02DA701B801DF91CF9109
:100630001F910F91FF90EF9019941F93CF93DF9329
:10064000EC01162F888D998D029744F48C859D8539
:100650000E94720E82E090E0998F888F8C859D8534
:10066000DC01ED91FC910190F081E02D612FDF9193
:10067000CF911F9119940F931F93CF93DF93EC01A8
:1006800060E070E0CB010E9491144E8563E571E05B
:100690008C859D8577DF1D8A00E010E020E030E04A
:1006A0004AE553E062E673E08C859D850E94DA1787
:1006B000FE01E75AFF4F11821082C95ADF4F19829B
:1006C0001882DF91CF911F910F910895CF92DF9201
:1006D000EF92FF920F931F93CF93DF93EC01888DDE
:1006E000998D0897039770F10E94C9146B017C01E2
:1006F000888D998D0897039728F10E94C914DC0111
:10070000CB018C199D09AE09BF0909A51AA52BA516
:100710003CA580179107A207B307A0F4E881F981EF
:100720000084F185E02DCE011995892B21F0CE01B1
:100730000E941F15D9CF68EE73E080E090E00E9420
:100740009114D6CF6C8D7D8D8E8D9F8DDF91CF9145
:100750001F910F91FF90EF90DF90CF900895CF926F
:10076000DF92EF92FF92CF93DF93FC01208D318DCA
:100770002850310923303105A8F4EC01A7DF6F3F81
:100780007F4F8F4F9F4F71F0C8A0D9A00D2C000C48
:10079000EE08FF08CE019ADF21E0C616D706E8066C
:1007A000F90608F420E0822FDF91CF91FF90EF90BF
:1007B000DF90CF900895FC01118E108E138E128E53
:1007C0008FEF9FEFDC01848F958FA68FB78F11A2DB
:1007D00010A28EE992E093A382A38FEA92E095A300
:1007E00084A316A210A617A280E395E7A0E0B0E0CC
:1007F00081A792A7A3A7B4A70895CF93DF93EC0195
:100800008C859D85DC01ED91FC910488F589E02DB6
:100810001995CE01DF91CF91CECF9FE9980F9630F9
:1008200010F4875508959FEB980F963010F4875376
:10083000089580538A3008F080E00895CF92DF92C7
:10084000EF92FF921F93CF93DF93CDB7DEB76297FE
:100850000FB6F894DEBF0FBECDBF84E395E00E94D3
:100860005913892B09F0A4C080918C0490918D04B8
:10087000892B09F09DC0C0908604D0908704E09039
:100880008804F0908904D701C6010196A11DB11D0D
:100890008093860490938704A0938804B09389047E
:1008A00082E0C80ED11CE11CF11C8CE0CC0CDD1CDC
:1008B000EE1CFF1C8A95D1F781E0C81AD108E10827
:1008C000F108B701A601CE0101960E944E18B701AA
:1008D000A601CE0107960E944E18BE01695F7F4FA8
:1008E00087E994E00E94F717CE0107960E947E0DDB
:1008F0008091000290910102A0910202B091030246
:100900008C159D05AE05BF0508F564E874E0CE01C1
:1009100007960E94D20D89819A81009709F065C0DF
:100920008F8198859A83898389859A859C838B8317
:100930008B859C859E838D8318861F821A861986D7
:100940001C861B86CE0107960E947E0DBE016F5F3E
:100950007F4FCE010D960E94B90D409186045091B3
:10096000870460918804709189042CE0440F551F1E
:10097000661F771F2A95D1F7CE0107960E944E1861
:10098000BE01635F7F4FCE0107960E94A00FE82E45
:10099000F12CCE0107960E947E0DCE010D960E948D
:1009A0007E0D14E0EF28B1F5CE0101960E947E0D78
:1009B00084E395E00E94C912F82E482F50E060E0D1
:1009C00070E020E187E994E00E94290E87E994E035
:1009D0000E94720E80918C0490918D0401979093E7
:1009E0008D0480938C048F2D52C06F8178856115A2
:1009F000710509F449C04B815C812B853C85421708
:100A0000530708F441C00E948E268B859C859E83E7
:100A10008D8396CF115061F1BE016F5F7F4FCE0184
:100A20000D960E94B90D4091860450918704609103
:100A30008804709189049CE0440F551F661F771F3E
:100A40009A95D1F7CE0107960E944E18BE01635FBA
:100A50007F4FCE0107960E94A00FE82EF12CCE0109
:100A600007960E947E0DCE010D960E947E0D9ACFB4
:100A700068EE73E080E090E00E949114CE01019650
:100A80000E947E0D8FEF03C00E94F92449CF629629
:100A90000FB6F894DEBF0FBECDBFDF91CF911F918F
:100AA000FF90EF90DF90CF9008952F923F924F925A
:100AB0005F926F927F928F929F92AF92BF92CF92EE
:100AC000DF92EF92FF920F931F93CF93DF93CDB7F7
:100AD000DEB7A0970FB6F894DEBF0FBECDBF1C01E6
:100AE0002A013B013C8B2B8B1E8B0D8BF88EEF8AE2
:100AF000DA8EC98EBC8EAB8E6DE972E0CE010D969A
:100B00000E94D20D60E470E0CE010D9634D70E94B1
:100B1000C9146B017C0160E070E0CB010E9491146C
:100B2000D1018D919C91DC01ED91FC910084F185C6
:100B3000E02D1995181619060CF06CC1F101808191
:100B40009181DC01ED91FC910284F385E02D1995F2
:100B5000181619062CF7682FCE010D9688D7EB8949
:100B6000FC89EF2B29F42D893E89232BD1F414C065
:100B70006B897C89CE010196C6D7BE016F5F7F4F1E
:100B8000CE010D960E94BA17182FCE010196B6D746
:100B9000112349F311E094C18F89988D892BD1F4E9
:100BA00014C06D897E89CE010196ADD7BE016F5FFD
:100BB0007F4FCE010D960E94BA17182FCE010196D5
:100BC0009DD7112349F312E07BC1A98DBA8DAB2BC0
:100BD000D1F414C06F89788DCE01019694D7BE01EF
:100BE0006F5F7F4FCE010D960E94BA17182FCE016E
:100BF000019684D7112349F313E062C1EB8DFC8D7C
:100C0000EF2B41F514C0698D7A8DCE0101967BD70B
:100C1000BE016F5F7F4FCE010D960E94BA17182F4D
:100C2000CE0101966BD7112349F314E049C16BEE55
:100C300071E0CE01019667D7BE016F5F7F4FCE0195
:100C40000D960E94BA17182FCE01019657D7111191
:100C500015C058C06B8D7C8DCE01019654D7BE0156
:100C60006F5F7F4FCE010D960E94BA17182FCE01ED
:100C7000019644D71123D9F215E022C1D1016D911B
:100C80007C914CE2CE0107960E94AA19CE010796EC
:100C90004BD6613071058105910549F5F1016081FF
:100CA00071814AE0CE0101960E94AA19CE010196F7
:100CB0003BD64B015C01CE01019620D7F5E08F16A3
:100CC000910478F42FEF821A920A880C991CF10192
:100CD000E80DF91D0190F081E02D309711F031E021
:100CE000368B6DE972E0CE010D96F3D607C04B85C9
:100CF0005C856F817885CE010D9664D6CE0107960E
:100D0000FDD60ECF62EE71E0CE010196FCD6BE019B
:100D10006F5F7F4FCE010D960E94BA17182FCE013C
:100D20000196ECD6112309F4FBCE09891A890850E3
:100D300011096BE972E0CE01019634D72D813E8115
:100D40002115310589F189899A89009769F18217FE
:100D5000930750F10817190718F08C010150110979
:100D60008D849E8489819A819E8F8D8FC401AA244F
:100D7000AA94BB24BA94D401A00FB11FB8A3AF8F1B
:100D8000EF8DF8A1E817F90790F06D8D7E8D0E9428
:100D90009526009761F09C0128193909021713075D
:100DA00008F059010196ECCF0FEF1FEF01C085014C
:100DB000CE010196A3D60E5F1F4FA8016CE2CE01B3
:100DC0000D96BDD59C01A801BE01635F7F4FCE018A
:100DD0000196FCD6CE010196A7D54B015C01CE0150
:100DE00001968CD6F5E08F16910470F42FEF821ADD
:100DF000920A880C991CF101E80DF91D0190F0810F
:100E0000E02D309709F0158A6DE972E0CE010D965C
:100E100060D686CE0E94C914DC01CB018C199D09D5
:100E2000AE09BF0984159505A605B70508F473CE6C
:100E3000CD84DE84C114D104E9F109891A89011530
:100E40001105C1F1760157013FEFA31AB30AD7018B
:100E50008C91082E000C990B0E947D23892B11F098
:100E60007501F1CF015011090C0D1D1DF801808194
:100E7000082E000C990B0E947D23892B31F00E1552
:100E80001F0518F001501109F1CFA8014F5F5F4F06
:100E90004E195F095A8B498BCE14DF0420F4B70139
:100EA000C6010E947126ED85FE8589899A89E80F21
:100EB000F91F10826DE972E0CE010D960AD610E09E
:100EC000CE010D961BD6812FA0960FB6F894DEBFEB
:100ED0000FBECDBFDF91CF911F910F91FF90EF908B
:100EE000DF90CF90BF90AF909F908F907F906F904A
:100EF0005F904F903F902F9008956F927F928F92C6
:100F00009F92AF92BF92CF92DF92EF92FF920F9398
:100F10001F93CF93DF9300D000D0CDB7DEB74C0145
:100F20006C01F12CD6011296AD90BC901397A114D0
:100F3000B10409F468C0F5018689882309F463C007
:100F4000168A4F2D65ED71E0C4011CDB00E010E056
:100F500020E030E04AE553E06AEC71E0C4010E9411
:100F6000DA17813049F1D60112966D907C90139773
:100F70004F2D6EEB71E0C40105DB01E911E02CE9B6
:100F800031E047EA51E061EB71E0C4010E94DA17F9
:100F9000E82E00E010E020E030E04AE553E062E6B1
:100FA00073E0C4010E94DA1781E0E81280E0F301E7
:100FB000858B612C712C24C0C4010E945817C40178
:100FC0000E945817D4016D917C914AE0CE010196A0
:100FD0000E94AA19CE010196A7D43B01CE01019629
:100FE0008DD500E010E020E030E04AE553E062E615
:100FF00073E0C4010E94DA176114710409F4B3CFDD
:10100000F501708A6786F2E0CF0ED11CF39485E07B
:10101000F81288CFD4018D919C91DC01ED91FC9167
:101020000084F185E02D1995892B89F0A12CB12C34
:10103000C12CD12CE12CF12C00E010E020E030E0BC
:101040004AE050E060E070E0C4012FDDE3CF269677
:101050000FB6F894DEBF0FBECDBFDF91CF911F91C9
:101060000F91FF90EF90DF90CF90BF90AF909F9047
:101070008F907F906F9008952F923F924F925F9242
:101080006F927F928F929F92AF92BF92CF92DF9298
:10109000EF92FF920F931F93CF93DF93CDB7DEB7FD
:1010A0002E970FB6F894DEBF0FBECDBF3C011B01DB
:1010B0005C874B8760E070E0CB010E949114D30104
:1010C0001C968D919C911D9718DF412C512CF3019A
:1010D000E95AFF4FFA87E987C301875A9F4F9887DC
:1010E0008F83D3015796BE87AD87EB85FC854E165F
:1010F0005F0608F011C1D30155968C91882309F43D
:101100000BC1E985FA8580819181AF81B8852D91E8
:101110003C91821B930B97FF02C0805C9F4FCB8456
:10112000DC84C418D5088C159D0508F46C01C11425
:10113000D104E1F156014101EF81F885E080F180B1
:10114000A985BA858D919C918E199F0997FF02C040
:10115000805C9F4F009729F42C0C3D1C4C0C5D1CAF
:10116000C4CF00E410E00E191F09A016B1060CF45C
:101170008501801791070CF48C016D857E856E0DBD
:101180007F1DA801C4010E947126E00EF11EBFE37D
:10119000EB22FF24EF81F885F182E082A01AB10AE8
:1011A000800E911EA114B104B9F2C6CFD3011C96D2
:1011B0008D919C911D97A1DEF30187859089892BE4
:1011C00009F4AAC0D684AF81B8852D913C91E985F8
:1011D000FA8580819181281B390B1216130614F0B1
:1011E000205C3F4FD3011C96ED90FC901D97215041
:1011F00031094D2D64E871E0C701ABD700E010E084
:1012000020E030E04AE553E069E771E0C7010E9461
:10121000DA17813009F069CFC7010E945817C7015A
:101220000E945817F701608171814CE2CE0101964E
:101230000E94AA19CE01019677D35B01CE010196D7
:101240005DD487010D0D111D0D0D111DD8011296D4
:10125000CD90DC901397F701608171814AE0CE0157
:1012600001960E94AA19CE0101965ED3D60150962E
:101270007C936E931F97CE01019640D4C12CD12C44
:10128000CA14DB04E8F5F70180819181DC01ED915E
:10129000FC910084F185E02D1995892B31F460E0F3
:1012A00070E0CB010E949114EECFF7018081918113
:1012B000DC01ED91FC910284F385E02D1995F80194
:1012C00062817381DB01A95ABF4F4D915C911197E7
:1012D0009A012F5F3F4F2F733327FB01E75AFF4FD0
:1012E0000190F081E02D2E173F0731F0FB01E40F54
:1012F000F51F878B2D933C93FFEFCF1ADF0AC0CFEA
:1013000000E010E020E030E04AE553E062E673E000
:10131000C7010E94DA17E9CEC2012E960FB6F894E3
:10132000DEBF0FBECDBFDF91CF911F910F91FF9018
:10133000EF90DF90CF90BF90AF909F908F907F9075
:101340006F905F904F903F902F9008958F929F9253
:10135000AF92BF92EF92FF920F931F93CF93DF93C1
:10136000EC0160E070E0CB010E9491147E0127E562
:10137000E20EF11C8E01075A1F4FF7018081918107
:10138000F80120813181821B930B97FF3EC0803C86
:10139000FFEF9F0749F58D898823E1F00E94C9146A
:1013A00089889A88AB88BC88DC01CB0188199909A7
:1013B000AA09BB09853F9140A105B10540F081E034
:1013C0008E8B0E94C914698B7A8B8B8B9C8B8C853E
:1013D0009D8593DDF70180819181F8012081318124
:1013E000821B930B97FF02C0805C9F4F2F8538892B
:1013F000820F931FDF91CF911F910F91FF90EF907C
:10140000BF90AF909F908F900895009779F7C3CFCA
:10141000AF92BF92CF92DF92EF92FF920F931F9302
:10142000CF93DF9300D000D0CDB7DEB78C015B0146
:101430006A0160E070E0CB010E949114D8011C9613
:101440008D919C911D9759DDF801E484F5849601F6
:1014500046856FE671E0C7017CD600E010E020E031
:1014600030E04AE553E06DE671E0C7010E94DA170B
:10147000813019F0E12CF12C35C0D7018D919C9170
:10148000DC01ED91FC910280F381E02DA601B50114
:101490001995F70180819181DC01ED91FC91068025
:1014A000F781E02D199500E010E020E030E04AE5FA
:1014B00053E06EE571E0C7010E94DA178130D1F682
:1014C000C7010E945817F701608171814AE0CE017F
:1014D00001960E94AA19CE01019626D27B01CE0167
:1014E00001960CD3C70126960FB6F894DEBF0FBE47
:1014F000CDBFDF91CF911F910F91FF90EF90DF90C3
:10150000CF90BF90AF9008958F929F92AF92BF926D
:10151000CF92DF92EF92FF920F931F93CF93DF93BF
:101520004C016B017A01DC01ED91FC910488F58995
:10153000E02D199560E070E0CB010E949114F40158
:10154000E75AFF4F11821082329711821082F40104
:10155000B684C485D58568E972E0888199810E9446
:101560007E1A6AE471E08881998108D12AE040E01E
:1015700050E0BA01888199816CD36BE972E088816F
:1015800099810E947E1A88819981DC01ED91FC91FC
:101590000680F781E02D199560E070E0CB010E9494
:1015A000911400E010E020E030E04AE553E062E60C
:1015B00073E0CE010E94DA1768E972E088819981B0
:1015C0000E947E1A6FE371E088819981D7D04B2DFC
:1015D00050E060E070E02AE0888199813AD36CE2C3
:1015E0008881998179D56AE371E088819981C6D033
:1015F00066E371E088819981C1D0B60188819981C3
:101600000E947E1A63E371E088819981B7D0A701B7
:1016100060E070E02AE0888199811BD36BE972E079
:10162000888199810E947E1A88819981DC01ED91DF
:10163000FC910680F781E02D199560E070E0CB0108
:101640000E94911482EFA82E80E0B82E9DEFC92E43
:1016500090E0D92E25E0E22E21E0F22E07E111E004
:1016600026E231E048EF54E261E070E0CE011DDA9D
:1016700091E0813009F090E0F401958B892F90E0A2
:10168000DF91CF911F910F91FF90EF90DF90CF905E
:10169000BF90AF909F908F900895CF92DF92EF927E
:1016A000FF920F931F93CF93DF9300D000D0CDB75D
:1016B000DEB77C018B016A016DE972E0CE01019613
:1016C00071D260E170E0CE01019655D1D801129639
:1016D0006C91CE0101960E942717CE0101960E94BF
:1016E0005217F8016381CE0101960E942717CE019F
:1016F00001960E945217D80114966C91CE01019662
:101700000E942717CE0101960E945217F8016581A9
:10171000CE0101960E94271769817A81D701ED9148
:10172000FC910088F189E02DA601C70119958C0173
:10173000CE010196E3D1C80126960FB6F894DEBF1C
:101740000FBECDBFDF91CF911F910F91FF90EF9012
:10175000DF90CF9008950895CF93DF93EC018881B7
:101760009981009711F00E94F924198218821D8234
:101770001C821B821A82DF91CF910895EF92FF9213
:101780000F931F93CF93DF938C017B01C0E0D0E0D8
:10179000F701EC0FFD1F6491662361F0D801ED9114
:1017A000FC910190F081E02DC8011995892B11F071
:1017B0002196EECFCE01DF91CF911F910F91FF9037
:1017C000EF9008950F931F93CF93DF938C01C6E0A2
:1017D000D6E068E972E0888199810E947E1AB8019A
:1017E00088819981CBDF6BE972E0888199810E94C1
:1017F0007E1A88819981DC01ED91FC910680F78148
:10180000E02D199560E070E0CB01DF91CF911F9141
:101810000F910C9491144F925F926F927F92AF92BE
:10182000BF92CF92DF92EF92FF920F931F930E948D
:10183000C9142B013C010E94C914DC01CB0184199D
:101840009509A609B70980319742A105B10528F588
:1018500087E693E0B7DFA12CB12CC12CD12CE12C71
:10186000F12C0AE513E022E633E048EC50E060E0BA
:1018700070E086E096E019D9813041F464E670E0CA
:1018800080E090E00E94911481E008C064E670E07E
:1018900080E090E00E949114CECF80E01F910F91E4
:1018A000FF90EF90DF90CF90BF90AF907F906F90C0
:1018B0005F904F900895CF93DF93FC01A089B18989
:1018C0008C91A689B78982FD2BC0C289D389888172
:1018D00082FF07C0818D8E5F8F73288126952170CE
:1018E00003C0818D8F5F8F739C91328D3817C9F043
:1018F000388132FF0DC0318DDF01A30FB11D5D9620
:101900002C93218DDF01A20FB11D5E969C9306C022
:10191000218DDF01A20FB11D5D969C93818F01C0C7
:101920008C91DF91CF910895FC0180819181009786
:1019300011F00C94572360E070E0CB010895CF9331
:10194000DF93FC01248135814217530778F4C0816D
:10195000D181062E000C770BCE01840F951F0E94BB
:101960007A26009719F08C1B9D0B02C08FEF9FEF1A
:10197000DF91CF9108950F931F93CF93DF93EC01E5
:1019800088819981009729F02A813B8126173707A2
:1019900088F48B016F5F7F4F0E948225009761F072
:1019A000998388831B830A832C813D81232B11F427
:1019B000FC01108281E001C080E0DF91CF911F9196
:1019C0000F910895EF92FF920F931F93CF93DF93A0
:1019D0006115710511F480E01BC041155105B9F086
:1019E0007B01EC018C819D818A01080F191FB801D0
:1019F000CE01C1DF882379F3288139818C819D81D3
:101A0000B701820F931F0E948E261D830C8381E0F5
:101A1000DF91CF911F910F91FF90EF900895CF9399
:101A2000DF93EC016115710559F0FB010190002075
:101A3000E9F73197AF01461B570BC4DF811102C094
:101A4000CE018ADECE01DF91CF910895CF93DF934F
:101A5000EC01FB014481558160817181B3DF81110B
:101A600002C0CE0179DECE01DF91CF910895CF93F0
:101A7000DF931F921F92CDB7DEB769831A8241E0D0
:101A800050E0BE016F5F7F4F9DDF0F900F90DF91A1
:101A9000CF910895EF92FF920F931F93CF93DF930F
:101AA000EC017B018A01BA0166DF811103C0CE011E
:101AB00053DE07C01D830C83B701888199810E9482
:101AC0008E26CE01DF91CF911F910F91FF90EF9065
:101AD0000895CF93DF93EC016115710551F0FB017F
:101AE00001900020E9F73197AF01461B570BD2DF79
:101AF00001C032DECE01DF91CF910895FC018081DB
:101B000091810C94F924EF92FF920F931F93CF933E
:101B1000DF93EC01198218821B821A821D821C82BB
:101B200061157105F9F08B01CB010E948C237C01BA
:101B3000BC01CE0120DF811108C0CE01DF91CF9121
:101B40001F910F91FF90EF9007CEFD82EC82B801BC
:101B500088819981DF91CF911F910F91FF90EF9034
:101B60000C948523DF91CF911F910F91FF90EF90FF
:101B70000895FB01DC0111961C921E9213961C9293
:101B80001E92129715961C921E921497861797070D
:101B900041F0608171816115710519F044815581B1
:101BA00079CF0895FC01118210821382128215826E
:101BB00014826115710549F0FB0101900020E9F7DD
:101BC0003197AF01461B570B65CF0895BF92CF9257
:101BD000DF92EF92FF920F931F93CF93DF937C01DD
:101BE0006B018A01E9012417350720F4812F89014F
:101BF000C42FD82F6DE972E0C701D4DFD601149647
:101C00008D919C91159708171907C0F48C179D07A3
:101C100008F4EC01D601ED91FC911197EC0FFD1F3A
:101C2000B08010826D917C91600F711FC70151DFF0
:101C3000D601ED91FC91EC0FFD1FB082C701DF9141
:101C4000CF911F910F91FF90EF90DF90CF90BF90B9
:101C500008958F929F92AF92BF92EF92FF920F934F
:101C60001F93CF93DF93CDB7DEB7A1970FB6F8944C
:101C7000DEBF0FBECDBF7C01FA01CB0119A222301D
:101C800008F42AE08E010F5D1F4F822E912CA12CAB
:101C9000B12CBF01A50194010E941E24F901CA01C3
:101CA000015011096A3014F4605D01C0695CD8010B
:101CB0006C93232B242B252B61F7B801C7010E94BD
:101CC000691AA1960FB6F894DEBF0FBECDBFDF91A3
:101CD000CF911F910F91FF90EF90BF90AF909F9089
:101CE0008F9008956BE972E00C94691A0F931F931B
:101CF000CF93DF93EC010E94691A8C01CE01F2DFD1
:101D0000800F911FDF91CF911F910F9108958F92B6
:101D10009F92AF92BF92EF92FF920F931F93CF9338
:101D2000DF9300D000D0CDB7DEB77C0180914C05A9
:101D300090914D0508970397E8F4809140059091A4
:101D40004105DC01ED91FC910084F185E02D1995B0
:101D5000892B61F08091400590914105DC01ED9166
:101D6000FC910284F385E02D1995E7CF84E395E09B
:101D70000E94DB0300914C0510914D0502301105C6
:101D800008F091C080916105811193C08091400558
:101D900090914105DC01ED91FC910688F789E02DD9
:101DA0001995882309F485C0B70180914005909169
:101DB00041050E947E1A64E874E08091400590918C
:101DC00041050E947E1A6AE072E080914005909180
:101DD00041050E947E1A61EF73E080914005909169
:101DE000410584DF80916205882309F43EC080911B
:101DF000420590914305892B91F16BEF73E080913F
:101E00004005909141050E947E1A609142057091B3
:101E1000430580914005909141050E947E1A809172
:101E20004A0590914B0580359105A1F069E374E076
:101E300080914005909141050E947E1A40914A058B
:101E400050914B0560E070E02AE080914005909150
:101E50004105FFDE809140059091410543DF62E03E
:101E600074E080E194E00E94A117809161058823CD
:101E700031F06BE174E081E294E00E94A11781E00F
:101E800090E090934D0580934C05012B79F480915F
:101E900040059091410526DF82E090E090934D054A
:101EA00080934C0503C08EEF9FEF39C080E090E037
:101EB00036C0609142057091430580914005909134
:101EC000410540914A0550914B056115710569F036
:101ED000DC01ED91FC910088F189E02D1995892BA9
:101EE00009F062CF8FEF9FEF1AC0DC01ED91FC91FA
:101EF0000684F785E02D23E832E03A832983809039
:101F0000460590904705A0904805B09049058B8202
:101F10009C82AD82BE82BE016F5F7F4FDFCF26966F
:101F20000FB6F894DEBF0FBECDBFDF91CF911F91EA
:101F30000F91FF90EF90BF90AF909F908F9008957A
:101F4000EF92FF920F931F93CF93DF93CDB7DEB73E
:101F500062970FB6F894DEBF0FBECDBF7C018B0138
:101F6000CE01019606DEB701CE01079602DE6CE2D5
:101F700074E0CE010D9616DEBE01695F7F4FCE0183
:101F80000D9664DD6BE374E04ADDBE016F5F7F4F49
:101F90005DDDBC0187E994E00E94F717CE010D9644
:101FA000ADDDCE010796AADDCE010196A7DD81E069
:101FB00090E090934D0580934C058DE394E0A7DE6F
:101FC0006BE374E0CE010196EDDD61E474E0CE01D7
:101FD0000796E8DDB701CE01079638DDBE016F5FD9
:101FE0007F4F34DDB80132DD8C016BEE73E0CE0142
:101FF0000D96D8DDF801608171818D859E85A1D710
:10200000CE010D967BDDCE01079678DDCE010196DF
:1020100075DD80914C0590914D0502975CF480919F
:102020004005909141055EDE82E090E090934D0581
:1020300080934C050E94D3188C01181619060CF0D9
:102040003BC068E474E087E994E050DE0E947B18AE
:10205000882329F1CE0101960E94F019CE010D9638
:102060000E94D019BE01635F7F4FCE01079681DDCC
:1020700069E374E0CE010796D2DCBE016F5F7F4F4B
:10208000E5DCBC0187E994E0B2D7CE01079636DDE6
:10209000CE010D9633DDCE01019630DDD7CF0E3C5B
:1020A000110561F484E395E00E94660370938D044A
:1020B00060938C0480E003C082E001C081E06296FE
:1020C0000FB6F894DEBF0FBECDBFDF91CF911F9149
:1020D0000F91FF90EF900895DC01ED91FC9101903C
:1020E000F081E02D1994EF92FF920F931F93CF93FD
:1020F000DF937C018B01C6E0D6E068E972E088815D
:1021000099810E947E1AB7018881998137DBB801D5
:10211000888199810E947E1A62E288819981DCDF40
:102120006BE972E0888199810E947E1A8881998189
:10213000DC01ED91FC910680F781E02D199560E0BE
:1021400070E0CB01DF91CF911F910F91FF90EF9045
:10215000E8C3CF92DF92FF920F931F93CF93DF9349
:10216000EC016B01F42E890168E972E088819981A4
:102170000E947E1AB6018881998100DB4F2D50E0C4
:1021800060E070E02AE08881998163DD6CE28881FB
:102190009981A2DFA80160E070E02AE0888199813E
:1021A00058DD6BE972E0888199810E947E1A8881EE
:1021B0009981DC01ED91FC910680F781E02D199564
:1021C00060E070E0CB01DF91CF911F910F91FF9004
:1021D000DF90CF90A6C3FC01538D448D252F30E0B6
:1021E000842F90E0821B930B541710F0CF96089524
:1021F00001970895FC01918D828D981721F1A28994
:10220000B3898C9182FF13C0828DDF01A80FB11DAD
:102210005D962C91828DDF01A80FB11D5E968C9189
:10222000928D9E5F9F73928F90E0922B0895828D86
:10223000DF01A80FB11D5D968C91928D9F5F9F73FA
:10224000928F90E008958FEF9FEF0895FC01918D9C
:10225000828D9817D1F0A289B3898C9182FF0FC02B
:10226000828D228DDF01A80FB11D5D968C9190E0CB
:10227000982F8827E20FF11D268D822B0895828DDD
:10228000E80FF11D858D90E008958FEF9FEF089581
:10229000FC01918D228D892F90E0805C9F4F821BE5
:1022A00091098F7399270288F389E02D208122FFFD
:1022B00002C096958795089589E695E0E9DF21E0CB
:1022C000892B09F420E0822F089587E994E0E0DF6C
:1022D00021E0892B09F420E0822F0895CF93DF932A
:1022E000FC01A289B3898C9182FF1CC0848DEF010F
:1022F000C80FD11DC35ADF4F3881848DEF01C80F3D
:10230000D11DC25ADF4F2881848D90E002968F73D1
:102310009927848F8C9130FF02C0816001C08E7F2D
:102320008C930DC0848DDF01A80FB11DA35ABF4F40
:102330002C91848D90E001968F739927848FA689C4
:10234000B7892C93A089B1898C9180648C93938DEB
:10235000848D981306C00288F389E02D80818F7DDB
:102360008083DF91CF910895EF92FF921F93CF93D7
:10237000DF93EC019B8D8C8DEA89FB89981305C056
:10238000A889B9898C9185FD3BC07B01808182FF42
:1023900003C01B8D1E5F02C01B8D1F5F1F738C8DC2
:1023A00081130BC00FB607FCFACFE889F989808149
:1023B00085FFF5CFCE0192DFF2CFEA89FB898081DC
:1023C00082FF10C08B8DDE01A80FB11DA35ABF4F35
:1023D0008F2D81708C938B8DDE01A80FB11DA25AB9
:1023E000BF4F06C08B8DDE01A80FB11DA35ABF4F92
:1023F000EC921B8F80818062808381E0888F12C085
:10240000808182FF07C0808170FF02C0816001C0AF
:102410008E7F8083EE89FF896083E889F9898081D6
:102420008064808381E090E0DF91CF911F91FF90E5
:10243000EF900895CF93DF93EC01888D8823C1F04E
:10244000EA89FB89808185FD05C0A889B9898C91BD
:1024500086FD0EC00FB607FCF5CF808185FFF2CF59
:10246000A889B9898C9185FFEDCFCE0137DFE8CF00
:10247000DF91CF91089580E090E0892B19F025DF5E
:10248000811120C080E090E0892B19F015DF8111C7
:102490001CC080E090E0892B41F080E090E0892B27
:1024A00021F00E940000811113C080E090E0892B90
:1024B000A1F080E090E0892B81F00E940000811162
:1024C0000AC008950E940000DDCF0E940000E1CF05
:1024D0000E940000EACF0C940000089570E0DC0137
:1024E000ED91FC910684F785E02D19943FB7F8949F
:1024F0008091930490919404A0919504B0919604D6
:1025000026B5A89B05C02F3F19F00196A11DB11D4E
:102510003FBFBA2FA92F982F8827820F911DA11D89
:10252000B11DBC01CD0142E0660F771F881F991FC6
:102530004A95D1F708958EBD0DB407FEFDCF8EB537
:10254000089585E0F8CFCF93DF93EC018C859D85CE
:10255000DC01ED91FC910288F389E02D1995288D1D
:10256000398D285031092330310580F44C8D5D8D33
:102570006E8D7F8D452B462B472B41F097FD06C076
:1025800028A139A1280F391F39A328A3DF91CF91A2
:1025900008950F931F93CF93DF93EC018EA18823AF
:1025A00061F0E881F9810084F185E02DCE01199573
:1025B000892B19F48FEF9FEF32C08C859D85DC014C
:1025C000ED91FC910284F385E02D199597FD27C0CC
:1025D000488D598D9A012850310923303105F8F47E
:1025E0000C8D1D8D2E8D3F8D012B022B032B81F425
:1025F0004A305105A1F42FA138A52150310938A73F
:102600002FA3232B61F429E030E0398F288F07C0F6
:1026100028A139A12F5F3F4F39A328A3E9CFDF912C
:10262000CF911F910F9108958F929F92AF92BF9279
:10263000CF92DF92EF92FF920F931F93CF93DF938E
:102640007C018B016C0182E0C80ED11C4701E5E0E2
:102650008E0E911CC0E0D0E0F60141916F0150E078
:1026600060E070E02AE0C801F4DA5C016EE2C801C3
:1026700033DD8A0D9B1DC80FD91FC814D90461F71B
:10268000F701458150E060E070E02AE0C801E1DA3E
:102690008C0F9D1FDF91CF911F910F91FF90EF90B5
:1026A000DF90CF90BF90AF909F908F9008950E9441
:1026B0006226EF92FF920F931F93CF93DF931F92A7
:1026C0001F92CDB7DEB78C01DC0158968D919C919D
:1026D0005997099709F046C0F80184859585DC0172
:1026E000ED91FC910084F185E02D1995892BD1F1B4
:1026F000F80184859585DC01ED91FC910284F385D8
:10270000E02D1995F82EBAE08B1306C08AE090E010
:10271000F801918F808F26C0FDE08F17E9F2082E17
:10272000000C990B0E946626892BB1F21A8219823D
:10273000F982D80197966D917C9198977B0184E0FE
:10274000EE0CFF1C8A95E1F740E150E060E070E09C
:10275000CE0101960E942C226E0D7F1DF80170A7FC
:1027600067A3BACFD80158968D919C9159970A9733
:1027700061F497968D919C919897892B31F489E01B
:1027800090E059969C938E935897F801808D918D87
:102790000997A9F084859585DC01ED91FC91008471
:1027A000F185E02D19959C01F801808D918D0A9796
:1027B00049F487A190A5281739072CF403C080E0BD
:1027C00090E001C0C9010F900F90DF91CF911F9150
:1027D0000F91FF90EF9008951F920F920FB60F92F6
:1027E00011240BB60F922F933F934F935F936F93E8
:1027F0007F938F939F93AF93BF93EF93FF9389E65C
:1028000095E06CDDFF91EF91BF91AF919F918F911A
:102810007F916F915F914F913F912F910F900BBEE0
:102820000F900FBE0F901F9018951F920F920FB62A
:102830000F9211240BB60F922F933F934F935F93F8
:102840006F937F938F939F93AF93BF93EF93FF9378
:1028500089E695E030D8FF91EF91BF91AF919F91BC
:102860008F917F916F915F914F913F912F910F9039
:102870000BBE0F900FBE0F901F9018951F920F92D6
:102880000FB60F9211240BB60F922F933F934F93D5
:102890005F936F937F938F939F93AF93BF93EF93C8
:1028A000FF9387E994E01ADDFF91EF91BF91AF911B
:1028B0009F918F917F916F915F914F913F912F9158
:1028C0000F900BBE0F900FBE0F901F9018951F9288
:1028D0000F920FB60F9211240BB60F922F933F93C6
:1028E0004F935F936F937F938F939F93AF93BF9318
:1028F000EF93FF9387E994E00E945B0CFF91EF91C7
:10290000BF91AF919F918F917F916F915F914F9107
:102910003F912F910F900BBE0F900FBE0F901F9005
:1029200018958F929F92AF92BF92CF92DF92EF92C3
:10293000FF926B017C01DADD4B015C01C114D10413
:10294000E104F104E9F0D2DDDC01CB018819990939
:10295000AA09BB09883E9340A105B10578F321E09F
:10296000C21AD108E108F10888EE880E83E0981EAB
:10297000A11CB11CC114D104E104F10421F7DECF84
:10298000FF90EF90DF90CF90BF90AF909F908F908F
:1029900008952FB7F89460918F04709190048091FE
:1029A0009104909192042FBF08951F920F920FB639
:1029B0000F9211242F933F938F939F93AF93BF93C5
:1029C00080918F0490919004A0919104B091920411
:1029D00030918E0423E0230F2D3720F40196A11DA2
:1029E000B11D05C026E8230F0296A11DB11D20933D
:1029F0008E0480938F0490939004A0939104B093DD
:102A000092048091930490919404A0919504B091C4
:102A100096040196A11DB11D809393049093940494
:102A2000A0939504B0939604BF91AF919F918F911D
:102A30003F912F910F900FBE0F901F901895CF923E
:102A4000DF92EF92FF920F931F93CF93DF93EC01EE
:102A5000E881F9810284F385E02D1995E82F888DAE
:102A6000998D9C01285031090E2F0E2E000C110B50
:102A70002330310508F483C08530910509F441C045
:102A80008730910509F45CC0049709F06AC08AA1F7
:102A90009BA1DC012C91E21314C09C012F5F3F4FDE
:102AA0003BA32AA311968C9181115BC085E090E035
:102AB000998F888F1C8E1D8E1E8E1F8E19A218A2B4
:102AC00050C0ACA1BDA12C91E2130BC0CD01019669
:102AD0009DA38CA311968C91811143C081E08EA39C
:102AE0000BC08E59924041F4AF5AB24029F4ED30F8
:102AF00019F487E090E032C086E090E0998F888FEB
:102B000030C07801A0E3EA1AF108BAE0EB16F1044C
:102B100098F72C8D3D8D4E8D5F8DAAE0B0E00E9420
:102B200040246701FF0CEE08FF08DC01CB018C0D8F
:102B30009D1DAE1DBF1D8C8F9D8FAE8FBF8F11C091
:102B4000EA30E9F48EA1882339F089E090E0998F8A
:102B5000888F18A61FA213C088E090E0998F888FF5
:102B60000EC0EA3061F484E090E0998F888F8EE99E
:102B700092E09BA38AA38FEA92E09DA38CA3C80155
:102B8000DF91CF911F910F91FF90EF90DF90CF9049
:102B900008952F923F924F925F926F927F928F9201
:102BA0009F92AF92BF92CF92DF92EF92FF920F93DC
:102BB0001F93CF93DF93CDB7DEB72F970FB6F8945F
:102BC000DEBF0FBECDBF6B017C014A015901289ABF
:102BD0006BE474E087E994E089D800E010E0712CA0
:102BE000F8010A151B0508F0E3C021E0721609F48C
:102BF00094C0721628F082E0781609F49AC0F1CFDA
:102C0000C8DE2B013C0128989CDC9BDC9ADC99DC1B
:102C100098DC97DC80FF42C094DC1B861A861D86F8
:102C20001C861F861E864AE0BE016F5F7F4F90E0C4
:102C30000E94D523BE016F5F7F4FCE010A960E948E
:102C4000690D61E574E0CE0101960E94D20DBE01CE
:102C5000665F7F4FCE0101960E94260DBC0187E979
:102C600094E0C5D1CE0101960E947E0DCE010A9658
:102C70000E947E0D8EDEDC01CB0184199509A60928
:102C8000B709853F9140A105B10508F4C2CF66E6BA
:102C900074E087E994E02AD881E092C0289A8FE90D
:102CA0009FE00197F1F700C00000289886E043DC20
:102CB000289A8FE99FE00197F1F700C0000028985B
:102CC00040DC3FDC3EDC3DDC3CDC3BDC81FD1BC012
:102CD00038DC482F50E060E070E02AE087E994E0BB
:102CE0000E94290E87E994E00E94720E52DEDC01F8
:102CF000CB0184199509A609B709853F9140A10523
:102D0000B10518F3C4CF289A8FE99FE00197F1F736
:102D100000C000007724739463CF289882E00BDC16
:102D20008E2D09DC8D2D07DC8C2D05DC82E0782EC4
:102D300057CF0F5F1F4FE80DF91D8081FCDBA016F8
:102D4000B10641F4289A8FE99FE00197F1F700C09E
:102D5000000046CF160127019FEF291A390A490AB8
:102D6000590ADD24EE24FF242FEFC216D104E1041A
:102D7000F10419F07201610133CF6EE674E087E966
:102D800094E00E94760E2AE0B201A10187E994E066
:102D90000E94290E87E994E00E94720E289A8FE91A
:102DA0009FE00197F1F700C000007201610117CFA9
:102DB000289A8FE99FE00197F1F700C0000080E0BA
:102DC0002F960FB6F894DEBF0FBECDBFDF91CF9127
:102DD0001F910F91FF90EF90DF90CF90BF90AF9039
:102DE0009F908F907F906F905F904F903F902F902B
:102DF00008950F931F93CF93DF93EC01CADD68878B
:102E000079878A879B87E881F9810284F385E02DA1
:102E1000CE01199597FF16C0BCDD088519852A8556
:102E20003B85DC01CB01801B910BA20BB30B0C810A
:102E30001D812E813F8180179107A207B30718F3E8
:102E40008FEF9FEFDF91CF911F910F910895EF9238
:102E5000FF920F931F93CF93DF9300D01F92CDB7B4
:102E6000DEB77C01862F4AE08E010F5F1F4FB8014D
:102E700090E00E949523F80101900020E9F7319736
:102E8000AF01401B510BB801C7010E94E20C0F902B
:102E90000F900F900F90DF91CF911F910F91FF90A6
:102EA000EF90089541E050E064EE73E00C94E20C82
:102EB000CF93DF93EC0188819981DC01ED91FC9146
:102EC0000084F185E02D1995892B29F460E070E0EC
:102ED000CB0127DDF0CF88819981DC01ED91FC9158
:102EE0000284F385E02D19958C9729F781E0DF9115
:102EF000CF910895FC01A089B18982E08C93A485CB
:102F0000B5851C92A685B78580E18C93108EA48927
:102F1000B58986E08C93A289B3898C9180618C936A
:102F2000A289B3898C9188608C93A289B3898C9192
:102F300080688C930288F389E02D80818F7D808367
:102F400008950F931F93CF93DF938B01C4E3D5E0D4
:102F5000BC018C859D85D2D26DE373E08C859D8507
:102F6000CDD2B8018C859D85DF91CF911F910F91B6
:102F70000C94760EFC0124813581FB01448155813E
:102F800024173507A0F0FC0180819181009779F02A
:102F9000FB01608171816115710549F0241B350BBE
:102FA000820F931F0E94852621E0892B09F020E0E3
:102FB000822F0895AF92BF92CF92DF92EF92FF924D
:102FC0000F931F93A12CB12C680179018A019B01F9
:102FD00048EE53E060E070E00E9455051F910F91AC
:102FE000FF90EF90DF90CF90BF90AF9008950F9338
:102FF0001F93CF93DF93EC01FB01448155816081E6
:1030000071813DD28C01CE010E94720E800F911F02
:10301000DF91CF911F910F910895EF92FF920F933F
:103020001F93CF93DF9300D01F921F92CDB7DEB7CF
:10303000DC01762F79018E010F5F1F4F85E0F801CB
:1030400011928A95E9F73BE139839EE09D836A837B
:103050005B834C83F70160813627E72FE3277E2FC0
:10306000742757279527F7019083BD01BB0F880B65
:10307000990B25E030E0A8018CDD91E0811101C0C1
:1030800090E0892F0F900F900F900F900F90DF918D
:10309000CF911F910F91FF90EF9008950F931F9381
:1030A000CF93DF93CDB7DEB7A1970FB6F894DEBF0D
:1030B0000FBECDBF8C01CB01BA01F8011182108285
:1030C00013821282158214822AE0AE014F5F5F4F95
:1030D0000E94B423BE016F5F7F4FC8010E94690D3B
:1030E000A1960FB6F894DEBF0FBECDBFDF91CF9192
:1030F0001F910F9108956DE972E083E695E00E94BB
:10310000690D80914C0590914D0508970397B0F09B
:1031100084E395E094DC8D30910519F08A309105B7
:1031200039F48091670590916805892B51F306C0A9
:10313000682F83E695E00E94370DE3CF81E0209170
:10314000670530916805232B09F480E008950F93FB
:103150001F93CF93DF93CDB7DEB762970FB6F89486
:10316000DEBF0FBECDBF8C01CB01F80111821082F2
:1031700013821282158214824AE0BE016F5F7F4F74
:103180000E949523BE016F5F7F4FC8010E94690DA9
:1031900062960FB6F894DEBF0FBECDBFDF91CF9120
:1031A0001F910F9108955F926F927F928F929F92DD
:1031B000AF92BF92CF92DF92EF92FF920F931F9345
:1031C000CF93DF9380914C0590914D0502970CF4BD
:1031D00055C0C0E0D0E082E0682E712C9AE0592EF4
:1031E00023E0E22EF12C34E0C32ED12C10924F05B7
:1031F00010924E0570924D0560924C05CADB4B0152
:103200005C010CE714E0CA30D105A9F0C2DBDC0197
:10321000CB0188199909AA09BB0920915D05309154
:103220005E0540915F055091600582179307A407E2
:10323000B50768F10CC080914E0590914F05883C10
:1032400091052CF48536910511F0C0E0D0E0809115
:103250004C0590914D05049761F480914E05909135
:103260004F05883C91056CF48536910509F0BECF79
:1032700008C02A9749F48CEF9FEF5CC08EEF9FEF58
:1032800059C02A9709F456C08DEF9FEF53C084E3CD
:1032900095E00FDA892B09F447C084E395E079D9EA
:1032A000EC01CF3F8FEFD80709F4ADCF80914C05EB
:1032B00090914D058230910519F00397B1F030C01F
:1032C000F80180818A3231F0082E000C990BC81762
:1032D000D90789F6C8010196F801218121111FC083
:1032E000F0924D05E0924C051AC0CE01C0978A308D
:1032F000910580F440914E0550914F05549E9001E8
:10330000559E300D1124820F931F90934F0580938B
:103310004E0506C0D0924D05C0924C0501C08C01EF
:1033200038DB4B015C016FCF68EE73E080E090E02A
:10333000F8DA69CFDF91CF911F910F91FF90EF9055
:10334000DF90CF90BF90AF909F908F907F906F90C5
:103350005F900895EF92FF920F931F93CF93DF93A7
:10336000EC017B01042F6DE972E00E94D20DC701D0
:1033700040DD002E000C110B97FD0AC0801791074D
:1033800039F0682FCE010E94370DC70132DDF4CF2E
:10339000CE01DF91CF911F910F91FF90EF90089593
:1033A000CF93DF93EC0140E050E06AE383E695E0E1
:1033B0000E949F0C8F3F2FEF920731F46DE972E06E
:1033C000CE010E94D20D08C09C0140E050E063E6AF
:1033D00075E0CE010E94E60DCE01DF91CF910895F8
:1033E000CF92DF92EF92FF920F931F93CF93DF93D1
:1033F0008C0140E050E06AE383E695E00E949F0C78
:10340000EC012196019631F46DE972E0C8010E9449
:10341000D20D2BC0E0906705F0906805C090630561
:10342000D0906405CE15DF05B4F4CE15DF0518F491
:10343000C114D10429F410921206E2E1F6E003C0AF
:10344000F601EC0FFD1F8081082E000C990B0E94E5
:103450007D23892B41F49701AE0163E675E0C80135
:103460000E94E60D02C02196DDCFC801DF91CF9109
:103470001F910F91FF90EF90DF90CF900895CF9222
:10348000DF92EF92FF920F931F93CF93DF936C0124
:103490007A018B01C0E0D0E0CE15DF0581F0D801C4
:1034A0006D918D01D601ED91FC910190F081E02D9F
:1034B000C6011995892B11F02196EECF7E01C70127
:1034C000DF91CF911F910F91FF90EF90DF90CF9000
:1034D00008956115710579F0FB0101900020E9F76D
:1034E0003197AF01461B570BDC01ED91FC91028037
:1034F000F381E02D199480E090E00895EACF8FE306
:1035000092E0909335058093340583E695E00C9422
:103510007E0DCF93DF93CDB7DEB7E4970FB6F89467
:10352000DEBF0FBECDBF789484B5826084BD84B504
:10353000816084BD85B5826085BD85B5816085BDAE
:1035400080916E00816080936E0010928100809166
:1035500081008260809381008091810081608093EE
:103560008100809180008160809380008091B10013
:1035700084608093B1008091B00081608093B0003E
:103580008091910082608093910080919100816090
:103590008093910080919000816080939000809151
:1035A000A10082608093A1008091A100816080933E
:1035B000A1008091A00081608093A00080912101F2
:1035C000826080932101809121018160809321019B
:1035D0008091200181608093200180917A00846035
:1035E00080937A0080917A00826080937A00809143
:1035F0007A00816080937A0080917A00806880935D
:103600007A001092C1002FEF33EC89E02150304056
:103610008040E1F700C0000087E994E06BDC89E6B8
:1036200095E068DC6AEC72E087E994E00E94760E2F
:1036300067ED72E087E994E00E94760E0FB6F89489
:10364000A89580916000886180936000109260006E
:103650000FBE0E940B0C882309F48FC08CE392E00C
:103660000E94E20BA12CB12CC12CD12CE12CF12C0D
:103670000AE513E022E633E040E157E260E070E063
:1036800086E096E00E945505813009F076C082E31D
:1036900092E00E94E20B22E633E040E157E260E074
:1036A00070E086E096E00E945505813009F065C023
:1036B00068EB7BE080E090E034D90E940B0C88231B
:1036C00009F45BC08EE292E00E94E20B00E010E0A1
:1036D00020E030E04AE553E062E673E086E096E001
:1036E00069DC8BE292E00E94E20B20E030E04AE5E8
:1036F00053E062E673E086E096E05CDC813009F03E
:103700003CC047D96B017C0144D9DC01CB018C1949
:103710009D09AE09BF0980319742A105B10568F541
:1037200084E292E00E94E20B00E010E020E030E052
:103730004AE553E06BE172E086E096E03BDC8130E5
:1037400031F068EE73E080E090E0EBD8DDCF08EF79
:1037500011E025E032E04DE052E065E172E086E004
:1037600096E028DC00E010E020E030E04AE553E09D
:1037700062E673E086E096E01DDC6CEE72E087E9BD
:1037800094E00E94760E89E695E00E944811181692
:10379000190624F589E695E00E94FA106C01990F4C
:1037A000EE08FF08F7FE0EC06DE287E994E00E9484
:1037B0006C1044275527BA014C195D096E097F0921
:1037C0002AE003C02AE0B701A60187E994E00E943D
:1037D000290E87E994E00E94720ED5CF67EF72E060
:1037E00087E994E00E94760E9E012F5F3F4F4901CA
:1037F000D0D82B013C01CDD8DC01CB01841995092F
:10380000A609B70980369A4EA105B10508F041C056
:103810008DE492E00E94E20B00E010E020E030E056
:103820004AE553E064E472E086E096E0C3DB813071
:1038300009F0C0C186E096E03BDB6091060670911E
:1038400007064AE0C40186DDC4010E94940C6B01A6
:103850007C01C4010E947E0D20E030E04AE553E087
:1038600062E673E086E096E0A5DBE894C2F8CA94CD
:10387000CD2809F09FC16BEA73E087E994E00E94CC
:10388000760E68EB73E087E994E00E94760EA895C7
:1038900011C066E073E087E994E00E94760E6AEF5B
:1038A00070E080E090E03DD8A3CF68EE73E080E068
:1038B00090E037D884E892E00E94E20BA12CB12C72
:1038C000C12CD12CE12CF12C0AE513E022E633E0E7
:1038D00040E65AEE60E070E086E096E00E94550512
:1038E000813071F48BE792E00E94E20B22E633E034
:1038F00040E65AEE60E070E086E096E00E945505F2
:103900008EE393E00E94E20B00E010E020E030E064
:103910004AE553E062E673E086E096E04BDB6DE05B
:1039200073E08BE293E00E94731020E030E04AE500
:1039300053E062E673E086E096E03CDB67E173E02B
:1039400087E193E00E94731020E030E04AE553E005
:1039500062E673E086E096E02DDB6BE173E084E0E5
:1039600093E00E94731020E030E04AE553E062E605
:1039700073E086E096E01EDB6DE073E082EF92E09C
:103980000E94731020E030E04AE553E062E673E005
:1039900086E096E00FDB87EE92E00E94E20BA12C1E
:1039A000B12CC12CD12CE12CF12C0AE513E022E63C
:1039B00033E040E65AEE60E070E086E096E00E9478
:1039C00055058CED92E00E94E20B22E633E048E0E0
:1039D0005CE461E070E086E096E00E94550581EDD0
:1039E00092E00E94E20B22E633E040E355E760E01C
:1039F00070E086E096E00E945505813009F003C42E
:103A000088EC92E00E94E20B22E633E040E65AEEB8
:103A100060E070E086E096E00E945505813009F094
:103A2000F2C38EEB92E00E94E20B00E010E020E097
:103A300030E04AE553E062E673E086E096E0BADA09
:103A4000813009F0E0C382EB92E00E94E20B20E0BB
:103A500030E04AE553E062E673E086E096E0AADAF9
:103A6000813009F0D0C386EA92E00E94E20B20E0A8
:103A700030E04AE553E062E673E086E096E09ADAE9
:103A8000813009F0C0C368E972E080910606909128
:103A9000070634DD6EE972E0809106069091070614
:103AA0000E94BE0B6DE073E08091060690910706C0
:103AB00025DD6AE972E080910606909107060E9472
:103AC000BE0B67E173E0809106069091070616DD54
:103AD00066E972E080910606909107060E94BE0B8F
:103AE0006BE173E0809106069091070607DD64E9BB
:103AF00072E080910606909107060E94BE0B6BE96A
:103B000072E08091060690910706F8DC8091060627
:103B100090910706DC01ED91FC910680F781E02D84
:103B2000199560E070E0CB010E9491140AE513E062
:103B300022E633E040E65AEE60E070E086E096E090
:103B40000E945505813009F05EC38DE892E00E9425
:103B5000E20B22E633E040E65AEE60E070E086E0F9
:103B600096E00E945505813009F04DC381E792E04F
:103B70000E94E20B22E633E040E157E260E070E0B1
:103B800086E096E00E945505813009F03CC384E54B
:103B900092E00E94E20B00E010E020E030E04AE515
:103BA00053E062E673E086E096E004DA813009F0E3
:103BB0002AC307C06AEF70E080E090E00E94911491
:103BC0001ACE10928B0410928A04A89564EC73E0CC
:103BD00087E994E00E94760E68EE73E080E090E062
:103BE0000E94911499E288E10FB6F894A895809309
:103BF00060000FBE909360000FB6F894A895809176
:103C00006000886180936000109260000FBE6EECCF
:103C100073E087E994E00E94760E6BE872E0C401DD
:103C20000E94D20DB40187E994E0E1D9C4010E9459
:103C30007E0D1092610581E090E090934D05809398
:103C40004C0586EE93E00E94870E64E874E08BEEEC
:103C500093E077D980914C0590914D05029764F4DB
:103C600080914005909141050E94720E82E090E0A3
:103C700090934D0580934C0596DA8C01BC01C401EC
:103C800066DAB40187E994E0B2D9C4010E947E0DDE
:103C9000101611065CF00D3F1F4F09F0B1C267E22C
:103CA00073E087E994E00E94760EAAC26FE273E0A7
:103CB00087E994E00E94760E1EDA882329F1CE016E
:103CC00085968EDBC4016CDBB401CE014F960E9459
:103CD000B90D69E374E0CE014F960E940F0DBE014D
:103CE0006B5D7F4F0E94260DBC0187E994E07FD970
:103CF000CE014F960E947E0DC4010E947E0DCE0122
:103D000085960E947E0DD8CF083C110509F078C237
:103D100084E395E00E946603AB01BC01409300027E
:103D20005093010260930202709303028E01015EC0
:103D30001F4FC801B3D962E373E0C4010E94D20DE2
:103D4000B801C4010E94260DBC0187E994E04FD957
:103D5000C4010E947E0DC8010E947E0D1CBC14B8D7
:103D600084B1876084B9289A8CB581658CBD60E484
:103D700073E087E994E00E94760EEFEFF0E722E02F
:103D8000E150F0402040E1F700C000006FEF7FE01D
:103D9000C801DDD96EE074E0C4010E94D20DB80103
:103DA000C4010E94A00FF82EC4010E947E0DC8011C
:103DB0000E947E0DF11016C21DA2D12C312C18AA22
:103DC0001BA6C12C1FA61EA61DA6A12CB12C212C02
:103DD000412C512C3201822D90E08730910508F062
:103DE000A7C0FC018827EE58FF4F8F4F62C50E9485
:103DF0001E04222423948A3309F0212CC12C98C05C
:103E00000E941E040E940D04A82E0E941E040E94FF
:103E10000D0490E1A99E50011124A82ACA0C82E049
:103E2000282E86C00E941E040E940D04E82E0E94C7
:103E30001E040E940D04F12CFE2CEE24F294A0EF3F
:103E4000FA22F82A0E941E040E940D04282E0E94C5
:103E50001E040E940D04E82AA0E12A9EC00111243C
:103E6000FC01EE29FF29FEA7EDA7CE0ECF0EB3E091
:103E70002B2E5EC00E941E040E940D04F0E18F9F55
:103E8000700111240E941E040E940D048E29C80E88
:103E9000882309F448C0813009F04AC091E1D92E45
:103EA00031E03BA798CF7401950133273CAB2BAB96
:103EB000C70188199909ABA9BCA98A179B07B4F552
:103EC0000E941E040E940D0420E1829FF001112433
:103ED000FAABE9AB0E941E040E940D0439A9832BA2
:103EE000C80ED7018D937D01E3CF0E941E040E946E
:103EF0000D04F82E0E941E040E940D04B0E1FB9EEA
:103F000090011124822B8FA7EBA5E13071F1E6E03F
:103F1000DE2EF6E02F2E5FCFC194FFA5CF1669F0FD
:103F200062E573E045C174E0272E02C065E0262EED
:103F30002BA5213009F04FCF03C0CFA457E0252E89
:103F400030E1D31609F459C03D1530F086E0D8169B
:103F500071F081E08BA73FCF91E1D91609F4FEC043
:103F6000A3E1DA1609F47AC0F4CF46E0242EB8A90A
:103F7000B13009F43DC061E673E087E994E00E9446
:103F8000760E1DA2632D70E09E012B5D3F4F45E034
:103F900050E0C20142D88111F4C08DA1E6E08E2725
:103FA000FDA58F272EA582278DA3D8011D92EA9506
:103FB000E9F7F6E0FF8F2EA52AA33DA53BA38CA32E
:103FC00026E030E0A801C301B2016B5F7F4F8F4F45
:103FD0009F4F0E94C9158111E9C08BE0480E511C0A
:103FE000611C711C339420E1D22E34E1232E02C0D7
:103FF00093E1D92E91E09BA7EECE6BE873E087E9C1
:1040000094E00E94760E1DA2632D70E09E012B5D50
:104010003F4F41E050E0C20100D88111B2C08DA1F4
:104020008D258DA3DF8E88A322E030E0A801C30197
:10403000B2016B5F7F4F8F4F9F4F0E94C915811157
:10404000B5C0A7E04A0E511C611C711C339483E17A
:10405000D82EB1E0B8ABE1E0EBA7BDCE2DB73EB7AF
:104060003CA72BA71DA275013AE0E30EF11C632DBE
:1040700070E09E012B5D3F4FA701C2010E940D1809
:10408000882319F060E773E03DC085E0480E511CBD
:10409000611C711C4DA14D254E254DA3ADB7BEB77A
:1040A000AE19BF090FB6F894BEBF0FBEADBFEDB7D6
:1040B000FEB731961196DC92F182E282138214826D
:1040C000158216821782108611868DB79EB70B96C1
:1040D000B4019B01281939092A153B0540F4DB017D
:1040E0002D91BD01DC012D93CD014227F2CF4DA3CF
:1040F0009701AF01C301B2010E94C915882371F075
:1041000060E873E087E994E00E94760E2BA53CA559
:104110000FB6F8943EBF0FBE2DBF64C04E0C5F1C9F
:10412000611C711C21E030E0AE014B5D5F4FC301AB
:10413000B2010E94C9158111E3CFBFEF4B1A5B0A90
:104140006B0A7B0A3394EBA5FCA50FB6F894FEBF6F
:104150000FBEEDBFD12C1BA6212C3DCE6BE973E029
:1041600087E994E00E94760E1DA2632D70E09E0107
:104170002B5D3F4F41E050E0C2010E940D188823A3
:1041800019F060E773E014C08DA18D258DA3DF8E3B
:1041900088A3C301B2016B5F7F4F8F4F9F4F22E017
:1041A00030E0A8010E94C915882339F060E873E067
:1041B00087E994E00E94760E15C060E273E087E91B
:1041C00094E00E94760E61E082E090E01AD399E2DA
:1041D00088E10FB6F894A895809360000FBE909385
:1041E0006000FFCF84E395E00E94FD0399E288E13F
:1041F0000FB6F894A895809360000FBE909360006E
:104200000E943B12FDCF80918A0490918B049C0107
:104210002F5F3F4F30938B0420938A0406970CF452
:1042200044CB60E273E087E994E00E94760E99E265
:1042300088E10FB6F894A895809360000FBE909324
:104240006000FFCFCF93DF93E9E6F5E0138212829F
:1042500048EE53E060E070E04483558366837783E3
:104260008BE292E0918380832DEC30E035872487C8
:104270002CEC30E03787268728EC30E0318B208B20
:1042800029EC30E0338B228B2AEC30E0358B248B09
:104290002EEC30E0378B268B118E128E138E148EFF
:1042A000A7E9B4E013961C921E92129714964D93B0
:1042B0005D936D937C93179711969C938E9385ECE9
:1042C00090E01D969C938E931C9784EC90E01F9633
:1042D0009C938E931E9780EC90E051969C938E93C6
:1042E000509781EC90E053969C938E93529782EC7A
:1042F00090E055969C938E93549786EC90E0579659
:104300009C938E93569759961C9259975A961C9245
:104310005A975B961C925B975C961C92A3E1B6E061
:1043200083E892E011969C938E9312961C921297BA
:1043300013961C92139714961C92149715961C9220
:10434000A9E1B6E011969C938E9312961C92129757
:1043500013961C92139714961C92149715961C9200
:10436000AAE7B6E011969C938E9312961C92129730
:1043700013961C92139714961C92149715961C92E0
:10438000A6E0B6E01196FC93EE932AE0E8E0F6E0B2
:10439000EF0119922A95E9F7EFE1F6E01382128214
:1043A000448355836683778325E632E03183208317
:1043B000109279061092780610927706109276067F
:1043C000B587A48721E02687108A1786118A128A6A
:1043D000138A148A158A168A1596FC93EE931497FD
:1043E000A4E3B5E013961C921E92129714964D9377
:1043F0005D936D937C9317974FE352E011965C9316
:104400004E931D96FC93EE931C974BE852E01F963B
:104410005C934E931E9751969C938E935097529611
:104420001D921D921D921C92559780E590E0579623
:104430009C938E9356979D962C939D979E962C9326
:104440006DE972E083E695E00E94D20D84E395E089
:10445000DF91CF910C94DB033F924F925F926F926A
:104460007F928F929F92AF92BF92CF92DF92EF9204
:10447000FF920F931F93CF93DF935C016B017A013F
:104480006115710519F0FB0191838083E114F1043A
:1044900029F0C7010297839708F0E2C0E501219651
:1044A000F5011081812F90E028D1892B11F05E0158
:1044B000F5CF1D3229F42196F501118101E007C0E5
:1044C0001B3221F4E5012296F501118100E0E1148F
:1044D000F10409F1F0E1EF16F10429F43EC010E314
:1044E000E114F10421F128E0E216F10401F154F4A1
:1044F000E2E0EE16F10421F5812C912CA12CB0E420
:10450000BB2E3DC0FAE0EF16F10439F020E1E216CF
:10451000F104B1F42FC0103311F1FAE0EF2EF12CB9
:10452000ACEC8A2E982CA82CACE0BA2E28C078E0EF
:10453000E72EF12C812C912CA12CE0E1BE2E1FC086
:1045400060E070E080E090E897010F2C000C440BD5
:10455000550B74D149015A0112C0103359F48881A6
:104560008F7D883509F0BBCF19812296026080E1EA
:10457000E82EF12C812C912CA12C68E0B62E40E085
:1045800060E070E0CB0127010F2C000C6608770873
:10459000FE0150ED352E310E29E0231570F42FEB7E
:1045A000210F2A3118F439EC332E06C02FE9210FE0
:1045B0002A3110F529EA322E310E232D30E02E1546
:1045C0003F05D4F447FD15C086169706A806B90620
:1045D00068F0A301920123D1630D711D811D911D0E
:1045E00061307105810520E8920710F04FEF01C09E
:1045F00041E021961081CCCF202F2170C114D1042D
:1046000071F0442329F02197F601D183C08307C0BC
:1046100001FF19C02297F601D183C08314C047FF60
:1046200012C0222329F060E070E080E090E804C02E
:104630006FEF7FEF8FEF9FE722E230E0309381064C
:104640002093800609C0222381F090958095709573
:1046500061957F4F8F4F9F4F462F372F282F12C0C6
:1046600040E030E020E090E00DC097FFF5CF82E21F
:1046700090E090938106809380066FEF7FEF8FEF3D
:104680009FE7EACF642F732F822FDF91CF911F9185
:104690000F91FF90EF90DF90CF90BF90AF909F90E1
:1046A0008F907F906F905F904F903F9008951F93F1
:1046B000FC0199278827BC01E89411911032E9F395
:1046C000193010F01E30C8F31B3249F01D3241F48E
:1046D000689405C034D0610F711D811D911D119129
:1046E00010531A30B8F33EF490958095709561950B
:1046F0007F4F8F4F9F4F1F91089591116FC0803250
:1047000019F089508550D0F70895FB01DC01059020
:104710000D920020E1F70895FC0105900020E9F7D3
:10472000809590958E0F9F1F0895BB274A3031F4D6
:10473000992322F4BDE2909581959F4F37C0592F60
:10474000482F372F262F660F771F881F991F660F58
:10475000771F881F991F620F731F841F951F660F95
:10476000771F881F991F0895BB27FA01A62F62178C
:10477000710581059105330B30FB66F0AA27660FA2
:10478000771F881F991FAA1FA21710F0A21B6395FD
:104790003850A9F7A05DAA3308F0A95DA19336F7B8
:1047A000B111B1931082CA011CC0BB27FB01552770
:1047B000AA27880F991FAA1FA41710F0A41B83957E
:1047C0005051B9F7A05DAA3308F0A95DA1930097F5
:1047D00079F7B111B1931192CB0103C099278827C2
:1047E0000895DC01FC01672F71917723E1F732977F
:1047F00004C07C916D9370836291AE17BF07C8F3BC
:104800000895262FF999FECF1FBA92BD81BD20BD14
:104810000FB6F894FA9AF99A0FBE01960895DB0143
:104820008F939F932DD0BF91AF91A29F800D911D2B
:10483000A39F900DB29F900D11240895A1E21A2E0E
:10484000AA1BBB1BFD010DC0AA1FBB1FEE1FFF1F34
:10485000A217B307E407F50720F0A21BB30BE40B84
:10486000F50B661F771F881F991F1A9469F76095CB
:104870007095809590959B01AC01BD01CF01089585
:1048800009D0A59F900DB49F900DA49F800D911D00
:1048900011240895A29FB001B39FC001A39F700D82
:1048A000811D1124911DB29F700D811D1124911D38
:1048B0000895EE0FFF1F881F8BBF0790F691E02D24
:1048C00019940F931F93CF93DF938230910510F4C7
:1048D00082E090E0E0918406F091850620E030E0EF
:1048E000A0E0B0E0309719F140815181028113813D
:1048F00048175907C8F08417950769F4109731F0E5
:1049000012960C93129713961C9327C0009384065B
:104910001093850622C02115310519F0421753075F
:1049200018F49A01BD01EF01DF01F801DBCF211579
:104930003105F9F0281B390B2430310580F48A81C8
:104940009B816115710521F0FB019383828304C073
:104950009093850680938406FE01329644C0FE0142
:10496000E20FF31F819391932250310939832883F9
:104970003AC02091820630918306232B41F4209186
:10498000060230910702309383062093820620911D
:104990000402309105022115310541F42DB73EB7CF
:1049A0004091080250910902241B350BE0918206C8
:1049B000F0918306E217F307A0F42E1B3F0B281794
:1049C000390778F0AC014E5F5F4F2417350748F088
:1049D0004E0F5F1F509383064093820681939193FD
:1049E00002C0E0E0F0E0CF01DF91CF911F910F9185
:1049F0000895CF93DF93009709F481C0FC013297AB
:104A000013821282A0918406B0918506109781F4DA
:104A100020813181820F931F20918206309183067D
:104A20002817390751F5F0938306E093820667C093
:104A3000ED0120E030E0CE17DF0740F44A815B81D2
:104A40009E0141155105F1F0EA01F5CFD383C283F0
:104A500040815181840F951FC817D90759F4888167
:104A60009981840F951F0296918380838A819B810F
:104A7000938382832115310529F4F0938506E09311
:104A800084063DC0E901FB83EA8349915991C40F33
:104A9000D51FEC17FD0761F480819181840F951F6C
:104AA0000296E90199838883828193819B838A831B
:104AB000E0E0F0E012968D919C911397009719F029
:104AC000FD01DC01F7CF8D919C9111979D012E5F27
:104AD0003F4F820F931F2091820630918306281743
:104AE000390769F4309729F41092850610928406EC
:104AF00002C013821282B0938306A0938206DF91D4
:104B0000CF9108956F927F928F929F92AF92BF92B2
:104B1000CF92DF92EF92FF920F931F93CF93DF9389
:104B2000009781F4CB01DF91CF911F910F91FF90FE
:104B3000EF90DF90CF90BF90AF909F908F907F903D
:104B40006F90BFCEFC01E60FF71F9C012250310988
:104B5000E217F30708F4A5C0EC01D9010D911C91EF
:104B6000119706171707A8F00530110508F497C02C
:104B7000C80104978617970708F491C002501109DD
:104B8000061B170B019311936D937C93CF0131DFBB
:104B900086C05B01A01AB10A4C01800E911EA09143
:104BA0008406B0918506612C712CE12CF12C1097B4
:104BB00009F446C08D919C911197A815B905B1F5DE
:104BC0006C0142E0C40ED11CCA14DB0478F14C0124
:104BD0008A189B08640142E0C40ED11C1296BC9056
:104BE00012971396AC91B5E0CB16D10440F0B28287
:104BF000A38391828082D9016D937C9309C00E5F5B
:104C00001F4F800F911FF90191838083EB2DFA2FA5
:104C1000E114F10431F0D7011396FC93EE9312974F
:104C20003EC0F0938506E093840639C06816790685
:104C300008F43C017D0112960D90BC91A02DB7CFD8
:104C4000809182069091830688169906E1F4661693
:104C50007706C8F48091040290910502009741F410
:104C60008DB79EB74091080250910902841B950BA5
:104C7000E817F907B0F4F0938306E0938206F90190
:104C8000718360830CC0CB011CDE7C01009749F06E
:104C9000A801BE0126D0CE01ACDEC70104C0CE0102
:104CA00002C080E090E0DF91CF911F910F91FF90C3
:104CB000EF90DF90CF90BF90AF909F908F907F90BC
:104CC0006F90089581E090E0F89449C0911186CDED
:104CD00080538A5028F0865C806281568650B8F7EF
:104CE0000895FB01DC0102C001900D92415050403B
:104CF000D8F70895FC018191861721F08823D9F710
:104D0000992708953197CF010895FB01DC018D911A
:104D1000019080190110D9F3990B0895FB01DC0172
:104D200001900D920020E1F70895FB015191552368
:104D3000A9F0BF01DC014D9145174111E1F759F48C
:104D4000CD010190002049F04D9140154111C9F36A
:104D5000FB014111EFCF81E090E00197089511E050
:104D6000C5EBD1E000E005C0802FFE01A2DD219659
:104D7000011DC63BD10780E00807B1F7F894FFCFCB
:104D8000C61300000000860680002F6669726D77EA
:104D90006172652D32303138313030343130353652
:104DA00031312E68657800000000006E123F1AEB6A
:104DB000101A124811FA102611B411000000001D3B
:104DC00003F702BF02A7025913C912B30276026A9F
:104DD00002A312FD035E025502AF03AF034F024967
:104DE00002000000003302080ABF020602A60917EB
:104DF0000214024D0B840A3C083B03F501E8010054
:104E00000000001413000000005713662E6D2D766D
:104E1000656E642E636F6D004154000D0A00436F90
:104E20006E74656E742D4C656E6774683A2000541C
:104E300072616E736665722D456E636F64696E672D
:104E40003A206368756E6B656400496E69746961C8
:104E50006C6973696E6700535441525420434F4D3F
:104E60004D554E49434154494F4E53005B4F4B5DA6
:104E7000204D4F44454D005B574149545D204E4500
:104E800054574F524B005B574149545D0073616664
:104E9000617269636F6D00736166006461746100C3
:104EA0005245424F4F540054696D656F7574004F01
:104EB0004B000A46696C652053697A65203A2000E8
:104EC00053504920496E697469616C697365642E39
:104ED0002E00436865636B73756D204572726F7247
:104EE000004C6F616420416464726573732E2E0000
:104EF00057726974652044617461204661696C0071
:104F00005752495445204641494C00454E5445525C
:104F10002050524F47204D4F4445004C4541564587
:104F20002050524F47204D4F4445005B4F4B5D2072
:104F30004E4554574F524B005B574149545D2047F3
:104F4000505253005B4F4B5D204750525300536506
:104F50006E64696E672048454144205265717565ED
:104F600073742E2E2E00484541440052616E6765D1
:104F70000020485454502F312E3100486F73743A3A
:104F8000200041726475696E6F2F322E322E300010
:104F9000557365722D4167656E7400636C6F736540
:104FA00000436F6E6E656374696F6E00476574745D
:104FB000696E672042797465733A002D0047455445
:104FC0000062797465733D004F6B005772697465B8
:104FD00000577269746520696E2050726F67726540
:104FE0007373202D200074696D656F7574005061B6
:104FF000676520426F756E64617279004854545041
:065000002F2A2E2A2000D9
:020000023000CC
:10E000000D9489F10D94B2F10D94B2F10D94B2F129
:10E010000D94B2F10D94B2F10D94B2F10D94B2F1F0
:10E020000D94B2F10D94B2F10D94B2F10D94B2F1E0
:10E030000D94B2F10D94B2F10D94B2F10D94B2F1D0
:10E040000D94B2F10D94B2F10D94B2F10D94B2F1C0
:10E050000D94B2F10D94B2F10D94B2F10D94B2F1B0
:10E060000D94B2F10D94B2F10D94B2F10D94B2F1A0
:10E070000D94B2F10D94B2F10D94B2F10D94B2F190
:10E080000D94B2F10D94B2F10D94B2F10D94B2F180
:10E090000D94B2F10D94B2F10D94B2F10D94B2F170
:10E0A0000D94B2F10D94B2F10D94B2F10D94B2F160
:10E0B0000D94B2F10D94B2F10D94B2F10D94B2F150
:10E0C0000D94B2F10D94B2F10D94B2F10D94B2F140
:10E0D0000D94B2F10D94B2F10D94B2F10D94B2F130
:10E0E0000D94B2F141546D656761323536300041AF
:10E0F000726475696E6F206578706C6F72657220DE
:10E1000073746B3530305632206279204D4C530099
:10E11000426F6F746C6F616465723E004875683F52
:10E1200000436F6D70696C6564206F6E203D200048
:10E130004350552054797065202020203D20005FF9
:10E140005F4156525F415243485F5F3D2000415658
:10E1500052204C696243205665723D20004743437C
:10E160002056657273696F6E203D20004350552024
:10E1700049442020202020203D20004C6F7720663D
:10E18000757365202020203D20004869676820665F
:10E190007573652020203D200045787420667573D6
:10E1A00065202020203D20004C6F636B2066757336
:10E1B000652020203D20004D617220203720323024
:10E1C000313300312E362E3800342E332E350056A2
:10E1D00023202020414444522020206F7020636F70
:10E1E00064652020202020696E73747275637469E1
:10E1F0006F6E2061646472202020496E74657272B3
:10E20000757074006E6F20766563746F7200726A49
:10E210006D702020006A6D70200057686174207056
:10E220006F72743A00506F7274206E6F7420737541
:10E2300070706F72746564004D7573742062652030
:10E2400061206C6574746572002000577269747483
:10E25000696E672045450052656164696E672045B7
:10E26000450045452065727220636E743D00504F35
:10E27000525400303D5A65726F2061646472003FF1
:10E280003D43505520737461747300403D454550C3
:10E29000524F4D207465737400423D426C696E6B41
:10E2A000204C454400453D44756D70204545505215
:10E2B0004F4D00463D44756D7020464C415348001B
:10E2C000483D48656C70004C3D4C69737420492F83
:10E2D0004F20506F72747300513D51756974005234
:10E2E0003D44756D702052414D00563D73686F7707
:10E2F00020696E7465727275707420566563746FF0
:10E30000727300593D506F727420626C696E6B00BD
:10E310002A0011241FBECFEFD1E2DEBFCDBF01E046
:10E320000CBF12E0A0E0B2E0EEE1FDEF03E00BBFB6
:10E3300002C007900D92A030B107D9F712E0A0E01B
:10E34000B2E001C01D92AE30B107E1F70F9460F367
:10E350000D948DFE01E20EBF0FEF0DBF11241FBE05
:10E360000D9460F30D9400F020E030E040ED57E0B4
:10E3700005C0FA013197F1F72F5F3F4F2817390792
:10E38000C0F308959C01260F311DC901A0E0B0E043
:10E390002F5F3F4FABBFFC018791882361F08093D3
:10E3A000C6008091C00086FFFCCF8091C0008064D1
:10E3B0008093C000EACF08958DE08093C6008091DD
:10E3C000C00086FFFCCF8091C00080648093C000B5
:10E3D0008AE08093C6008091C00086FFFCCF8091C8
:10E3E000C00080648093C00008950F94C2F10F9420
:10E3F000DCF10895FC019081992359F09093C600B7
:10E400008091C00086FFFCCF8091C0008064809323
:10E41000C0003196992379F70895282F982F929567
:10E420009F70892F805D8A3308F0895F8093C600D2
:10E430008091C00086FFFCCF8091C00080648093F3
:10E44000C000822F8F70982F905D9A3308F0995FEB
:10E450009093C6008091C00086FFFCCF8091C000E1
:10E4600080648093C00008959C01FB01853691056E
:10E470001CF46330710594F0C90164E670E00F94F8
:10E480002EFE605D7F4F6093C6008091C00086FFC6
:10E49000FCCF8091C00080648093C0002B30310598
:10E4A00014F43297B4F0C90164E670E00F942EFEC4
:10E4B0006AE070E00F942EFE605D7F4F6093C600AF
:10E4C0008091C00086FFFCCF8091C0008064809363
:10E4D000C000C9016AE070E00F942EFEC0968093E0
:10E4E000C6008091C00086FFFCCF8091C000806490
:10E4F0008093C00008951F93182F8EE692EE60E07F
:10E500000F94C2F11093C6008091C00086FFFCCF2B
:10E510008091C00080648093C0000F94DCF11F9153
:10E5200008952F923F924F925F926F927F928F92B7
:10E530009F92AF92BF92CF92DF92EF92FF920F9392
:10E540001F93DF93CF93CDB7DEB762970FB6F894E2
:10E55000DEBF0FBECDBF382E622ECA01DB015C01CB
:10E560006D01772420E2222E2E010894411C511CBB
:10E570008BC081E0A81680E0B80681E0C80680E084
:10E58000D80628F0C601AA27BB270F940DF2BB2797
:10E59000AD2D9C2D8B2D0F940DF28A2D0F940DF225
:10E5A0002092C6008091C00086FFFCCF8091C00001
:10E5B00080648093C0009DE29093C6008091C0006B
:10E5C00086FFFCCF8091C00080648093C0002092C1
:10E5D000C6008091C00086FFFCCF8091C00080649F
:10E5E0008093C00019828601750188249924A1E0D6
:10E5F0003A1651F03A1620F0B2E03B1661F409C029
:10E600000BBFF701779007C0C7010F9477FE782EF4
:10E6100002C0F7017080872D0F940DF22092C60082
:10E620008091C00086FFFCCF8091C0008064809301
:10E63000C000872D8052F401EF70F0708F3520F408
:10E64000E40DF51D708204C0E40DF51D8EE280839B
:10E650000894E11CF11C011D111D0894811C911CE2
:10E6600090E18916910409F0C2CF80E190E0A0E02A
:10E67000B0E0A80EB91ECA1EDB1E198AC2010F9493
:10E68000FAF10F94DCF16A94662009F072CF629679
:10E690000FB6F894DEBF0FBECDBFCF91DF911F91B3
:10E6A0000F91FF90EF90DF90CF90BF90AF909F9031
:10E6B0008F907F906F905F904F903F902F90089534
:10E6C0002F923F924F925F926F927F928F929F9282
:10E6D000AF92BF92CF92DF92EF92FF920F931F9370
:10E6E000DF93CF93CDB7DEB7CD53D1400FB6F894BB
:10E6F000DEBF0FBECDBF01E20EBF0FEF0DBF94B75F
:10E70000F894A89514BE80916000886180936000A1
:10E7100010926000789493FF05C0E0910002F091A0
:10E7200001021995279A2F9A8091C00082608093E8
:10E73000C00080E18093C40088E18093C1000000A4
:10E74000EE24FF24870144E0A42EB12CCC24DD2448
:10E7500024C0C5010197F1F70894E11CF11C011DCB
:10E76000111D21E2E2162EE4F20620E0020720E06D
:10E77000120718F031E0C32ED12CC801B70127ECE5
:10E780003BE140E050E00F9441FE611571058105C9
:10E79000910519F485B1805885B98091C00087FD35
:10E7A00003C0C114D104A9F2A6014F5F5F4FC25E3E
:10E7B000DE4F59834883CE51D140C25EDE4F8881FF
:10E7C0009981CE51D140019711F00D9410FEC05D9A
:10E7D000DE4F19821882C053D14060E0C15DDE4F28
:10E7E0001882CF52D14088249924C35DDE4F19820C
:10E7F0001882CD52D140C05EDE4F188219821A8233
:10E800001B82C052D140CE5CDE4F188219821A8220
:10E810001B82C253D140EE24FF2487010BBFF701B6
:10E8200007911691C45CDE4F19830883CC53D14005
:10E830000D940BFEC25EDE4F28813981CE51D1404E
:10E840002130310509F52091C600C25EDE4F1982E4
:10E850001882CE51D14022C02F5F3F4F4F4F5F4FA4
:10E86000213082E138078AE7480780E0580780F0C6
:10E87000C45CDE4FE881F981CC53D140EF5FFF4F9C
:10E8800019F0EE27FF27099420E030E040E050E047
:10E890008091C00087FFE0CF2091C600C35DDE4FAE
:10E8A00048815981CD52D1404F5F5F4FC35DDE4FEC
:10E8B00059834883CD52D140213209F063C64A3092
:10E8C000510508F05FC60894811C911C53E0851621
:10E8D000910409F059C600E010E018C081E280936D
:10E8E000C6008091C00086FFFCCF8091C00080648C
:10E8F0008093C0002F5F3F4F2931310579F70F9486
:10E90000DCF10F5F1F4F0530110519F020E030E0FA
:10E91000E5CF10920A0210920B0210920C02109294
:10E920000D02109206021092070210920802109235
:10E930000902109202021092030210920402109235
:10E9400005028FEE90EE60E00F94F5F180E191EE1C
:10E9500060E00F94C2F18091C00087FFFCCF9091DE
:10E96000C600903608F09F759032B8F09093C600BC
:10E970008091C00086FFFCCF8091C00080648093AE
:10E98000C000A0E2A093C6008091C00086FFFCCF2B
:10E990008091C00080648093C000983409F4D7C18E
:10E9A0009934B8F4923409F459C1933458F490333B
:10E9B00019F1903308F4E3C59F33A1F1903409F0C5
:10E9C000DEC5BDC0953409F470C1963409F0D7C5D1
:10E9D00098C1923509F42BC2933538F49C3409F46C
:10E9E000F5C1913509F0CBC518C2963509F445C279
:10E9F000993509F0C4C567C483E792EE62E00F94CD
:10EA0000F5F110920602109207021092080210927D
:10EA1000090210920A0210920B0210920C0210923C
:10EA20000D0213C18FE792EE62E00F94F5F18FEEC5
:10EA300090EE60E00F94F5F181E291EE60E00F94CA
:10EA4000C2F187EB91EE60E00F94F5F180E391EE77
:10EA500060E00F94C2F184EE90EE60E00F94F5F167
:10EA60008FE391EE60E00F94C2F186E090E061E008
:10EA700070E00F9434F20F94DCF18DE591EE60E0DC
:10EA80000F94C2F189EC91EE60E00F94F5F18EE401
:10EA900091EE60E00F94C2F183EC91EE60E00F9490
:10EAA000F5F18CE691EE60E00F94C2F18EE10F94E7
:10EAB0000DF288E90F940DF281E00F940DF20F949E
:10EAC000DCF18BE791EE60E00F94C2F119E0E0E039
:10EAD000F0E010935700E4918E2F0F940DF20F94F5
:10EAE000DCF18AE891EE60E00F94C2F1E3E0F0E03F
:10EAF00010935700E4918E2F0F940DF20F94DCF1D8
:10EB000089E991EE60E00F94C2F1E2E0F0E0109349
:10EB10005700E4918E2F0F940DF20F94DCF188EAE8
:10EB200091EE60E00F94C2F1E1E0F0E01093570045
:10EB30001491812F0F940DF20F94DCF107CF8BE825
:10EB400092EE62E00F94F5F18BE492EE60E00F94A8
:10EB5000F5F10F94DCF100E010E019C0C8016F2D51
:10EB60000F947FFEFF2031F489E492EE60E00F9471
:10EB7000C2F10BC0F092C6008091C00086FFFCCFAE
:10EB80008091C00080648093C0000F5F1F4FC80158
:10EB900081519F41A0E0B0E0ABBFFC01F790BAE229
:10EBA000FB1621F0E2E000301E07C1F60F94DCF105
:10EBB0000F94DCF187E592EE60E00F94F5F10F948D
:10EBC000DCF1CC24DD2400E010E01EC0C8010F946D
:10EBD00077FEF82E882331F489E492EE60E00F94FA
:10EBE000C2F10BC08093C6008091C00086FFFCCFAD
:10EBF0008091C00080648093C000FE1419F00894D6
:10EC0000C11CD11C0F5F1F4FC80181519F41A0E063
:10EC1000B0E0ABBFFC01E790FAE2EF1621F022E092
:10EC20000030120799F60F94DCF10F94DCF182E6C4
:10EC300092EE60E00F94C2F1C60161E070E00F94C3
:10EC400034F20F94DCF10F94DCF110920202109276
:10EC50000302109204021092050278CE89E992EE26
:10EC600062E00F94F5F1279A2F9A16C02F9880E052
:10EC700090E0E0EDF7E03197F1F7019684369105E9
:10EC8000C1F72F9A80E090E0E0EDF7E03197F1F7DF
:10EC9000019684369105C1F78091C00087FFE6CFC9
:10ECA0008091C00087FFFCCF64C485EA92EE62E0E9
:10ECB0000F94F5F140910202509103026091040219
:10ECC0007091050281E020E10F9491F2809102029F
:10ECD00090910302A0910402B091050280509F4FD1
:10ECE000AF4FBF4F8093020290930302A0930402A0
:10ECF000B093050280509041A040B04008F426CE69
:10ED0000A4CF83EB92EE62E00F94F5F140910602FE
:10ED100050910702609108027091090280E020E1A1
:10ED20000F9491F28091060290910702A09108023F
:10ED3000B091090280509F4FAF4FBF4F80930602A2
:10ED400090930702A0930802B0930902FFCD80ECD4
:10ED500092EE62E00F94F5F183E792EE60E00F949B
:10ED6000F5F18FE792EE60E00F94F5F18BE892EE0B
:10ED700060E00F94F5F189E992EE60E00F94F5F10F
:10ED800085EA92EE60E00F94F5F183EB92EE60E09D
:10ED90000F94F5F180EC92EE60E00F94F5F187ECC2
:10EDA00092EE60E00F94F5F188ED92EE60E00F9442
:10EDB000F5F18FED92EE60E00F94F5F18AEE92EEB0
:10EDC00060E00F94F5F183E093EEBDCD87EC92EE19
:10EDD00062E00F94F5F181E40F947BF282E40F94EA
:10EDE0007BF283E40F947BF284E40F947BF285E45E
:10EDF0000F947BF286E40F947BF287E40F947BF20E
:10EE000088E40F947BF28AE40F947BF28BE40F94F6
:10EE10007BF28CE40F947BF299CD88ED92EE62E068
:10EE20000F94F5F1772473948824992409C48FED05
:10EE300092EE62E00F94F5F140910A0250910B02BC
:10EE400060910C0270910D0282E020E10F9491F22A
:10EE500080910A0290910B02A0910C02B0910D02D8
:10EE600080509F4FAF4FBF4F80930A0290930B0289
:10EE7000A0930C02B0930D0269CD8AEE92EE62E08F
:10EE80000F94F5F184EE90EE60E00F94F5F18FECC5
:10EE900091EE60E00F94F5F1662477244301CC5D98
:10EEA000DE4F19821882C452D140D401C301B695F5
:10EEB000A79597958795CA5DDE4F88839983AA8326
:10EEC000BB83C652D140CC5DDE4FA881B981C4520C
:10EED000D1401196CC5DDE4FB983A883C452D14096
:10EEE000CD0162E070E00F9434F2B0E2B093C6005E
:10EEF0008091C00086FFFCCF8091C0008064809329
:10EF0000C000EDE2E093C6008091C00086FFFCCF18
:10EF10008091C00080648093C000F0E2F093C6004E
:10EF20008091C00086FFFCCF8091C00080648093F8
:10EF3000C000CA5DDE4FE880F9800A811B81C6529D
:10EF4000D140BB27A12F902F8F2D0F940DF2CA5DBA
:10EF5000DE4F8881C652D1400F940DF2B0E2FB2EF5
:10EF6000F092C6008091C00086FFFCCF8091C00067
:10EF700080648093C0000DE30093C6008091C000C0
:10EF800086FFFCCF8091C00080648093C00010E2B7
:10EF90001093C6008091C00086FFFCCF8091C00016
:10EFA00080648093C0008BBEF3012791C65DDE4F65
:10EFB0002883CA52D140A22EBB24CC24DD2408943D
:10EFC000611C711C811C911C8BBEF3018791282E42
:10EFD0003324442455240894611C711C811C911C09
:10EFE0008BBEF3013791C55DDE4F3883CB52D140E4
:10EFF0000894611C711C811C911C8BBEF30147910C
:10F00000C45DDE4F4883CC52D140ADEFEA2EAFEF66
:10F01000FA2EAFEF0A2FAFEF1A2F6E0C7F1C801E57
:10F02000911E142D032DF22CEE24EA0CFB1C0C1D5A
:10F030001D1D0F940DF220E22093C6008091C000A8
:10F0400086FFFCCF8091C00080648093C000C65DC5
:10F05000DE4F8881CA52D1400F940DF230E23093D6
:10F06000C6008091C00086FFFCCF8091C000806404
:10F070008093C000C45DDE4F8881CC52D1400F9494
:10F080000DF240E24093C6008091C00086FFFCCFA5
:10F090008091C00080648093C000C55DDE4F888190
:10F0A000CB52D1400F940DF250E25093C6008091A4
:10F0B000C00086FFFCCF8091C00080648093C000B8
:10F0C0008FEFE8168FEFF80680E0080780E018075A
:10F0D00031F484E092EE60E00F94C2F1DFC0D80119
:10F0E000C7018070907CA070B0708050904CA040A0
:10F0F000B040D1F52FEF3FE340E050E0E222F322B1
:10F1000004231523CA5DDE4FA880B980CA80DB8046
:10F11000C652D140AE0CBF1CC01ED11EAA0CBB1CD7
:10F12000CC1CDD1C8EE092EE60E00F94C2F1BB2798
:10F13000A12F902F8F2D0F940DF28E2D0F940DF285
:10F1400030E23093C6008091C00086FFFCCF8091F2
:10F15000C00080648093C0004EE34093C60080915D
:10F16000C00086FFFCCF87C08EE09EEFA0E0B0E03D
:10F17000E822F9220A231B239CE0E91694E9F90608
:10F1800090E0090790E0190709F088C0C45DDE4FE0
:10F19000A881CC52D140EA2EFF2400E010E0102FCD
:10F1A0000F2DFE2CEE24C55DDE4FB881CB52D14031
:10F1B000EB0EF11C011D111DD601C501817090706F
:10F1C000A070B070DC0199278827E80EF91E0A1F8D
:10F1D0001B1F20EF30E040E050E0A222B322C42207
:10F1E000D52241E1AA0CBB1CCC1CDD1C4A95D1F7F1
:10F1F000EA0CFB1C0C1D1D1D81E090E0A0E0B0E0BE
:10F20000282239224A225B2235E1220C331C441C7D
:10F21000551C3A95D1F7E20CF31C041D151D57013E
:10F220006801AA0CBB1CCC1CDD1C85E192EE60E0E1
:10F230000F94C2F1C801AA27BB270F940DF2BB2778
:10F24000A12F902F8F2D0F940DF28E2D0F940DF274
:10F2500090E29093C6008091C00086FFFCCF809121
:10F26000C00080648093C000AEE3A093C60080918C
:10F27000C00086FFFCCF8091C00080648093C000F6
:10F28000C601AA27BB270F940DF2BB27AD2D9C2DDD
:10F290008B2D0F940DF28A2D0F940DF20F94DCF14B
:10F2A000CC5DDE4FE881F981C452D140F99709F471
:10F2B0004DCBF4E0EF2EF12C012D112D6E0C7F1CA7
:10F2C000801E911EF2CD83E093EE62E00F94F5F183
:10F2D0008AE192EE60E00F94C2F18091C00087FF56
:10F2E000FCCF1091C6001F751093C6008091C0001E
:10F2F00086FFFCCF8091C00080648093C0000F9493
:10F30000DCF1812F81548A3108F036C1163409F4BA
:10F3100095C0173490F4133409F44EC0143430F40B
:10F320001134F1F0123409F01DC130C0143409F465
:10F3300059C0153409F016C16BC01A3409F4C4C0A1
:10F340001B3438F4173409F48FC0183409F00AC19B
:10F35000A1C01B3409F4D2C01C3409F003C1E8C0B9
:10F360008FEF81B90DC082B1809582B980E090E0C5
:10F37000E0EDF7E03197F1F70196883C9105C1F790
:10F380008091C00087FFEFCF12B8EFC08FEF84B934
:10F390000DC085B1809585B980E090E0E0EDF7E0A3
:10F3A0003197F1F70196883C9105C1F78091C00033
:10F3B00087FFEFCF15B8D9C08FEF87B90DC088B1DF
:10F3C000809588B980E090E0E0EDF7E03197F1F7C3
:10F3D0000196883C9105C1F78091C00087FFEFCF6F
:10F3E00018B8C3C08FEF8AB90DC08BB180958BB9A7
:10F3F00080E090E0E0EDF7E03197F1F70196883C8E
:10F400009105C1F78091C00087FFEFCF1BB8ADC059
:10F410008FEF8DB90DC08EB180958EB980E090E0F0
:10F42000E0EDF7E03197F1F70196883C9105C1F7DF
:10F430008091C00087FFEFCF1EB897C08FEF80BBD1
:10F440000DC081B3809581BB80E090E0E0EDF7E0F6
:10F450003197F1F70196883C9105C1F78091C00082
:10F4600087FFEFCF11BA81C08FEF83BB0DC084B38C
:10F47000809584BB80E090E0E0EDF7E03197F1F714
:10F480000196883C9105C1F78091C00087FFEFCFBE
:10F4900014BA6BC08FEF809301010FC080910201FD
:10F4A00080958093020180E090E0E0EDF7E03197F5
:10F4B000F1F70196883C9105C1F78091C00087FF64
:10F4C000EDCF1092020151C08FEF809304010FC065
:10F4D0008091050180958093050180E090E0E0ED4A
:10F4E000F7E03197F1F70196883C9105C1F78091DB
:10F4F000C00087FFEDCF1092050137C08FEF8093DA
:10F5000007010FC08091080180958093080180E079
:10F5100090E0E0EDF7E03197F1F70196883C910536
:10F52000C1F78091C00087FFEDCF109208011DC088
:10F530008FEF80930A010FC080910B01809580931B
:10F540000B0180E090E0E0EDF7E03197F1F70196F4
:10F55000883C9105C1F78091C00087FFEDCF1092E4
:10F560000B0103C085E292EEEEC98091C00087FFD7
:10F57000FCCF8091C600EAC988E392EEE4C98CE131
:10F5800091EEE1C988249924933011F1943028F444
:10F59000913089F09230B8F408C0953061F195301F
:10F5A000F0F0963009F048C043C02B3109F042C951
:10F5B00091E06BE13FC96227C15DDE4F2883CF52E6
:10F5C000D14092E037C9B22FA0E0622793E032C960
:10F5D000822F90E0A82BB92B622794E02BC92E3004
:10F5E00009F039C3622795E0C05DDE4F19821882A9
:10F5F000C053D1401FC9E1E0F0E0EC0FFD1FC05D3A
:10F60000DE4F08811981C053D140E00FF11F2083E4
:10F610000F5F1F4FC05DDE4F19830883C053D14079
:10F6200062270A171B0709F005C9D80196E002C92D
:10F63000261709F010C303C0973009F0FBC87724E0
:10F640009981933109F412C19431C8F4963009F4C8
:10F65000D8C0973050F4923009F406C1933009F4C1
:10F660006DC0913009F059C253C0913109F477C08F
:10F67000923108F0BBC0903109F04FC2F5C098310B
:10F6800009F487C0993150F4953109F4EFC09531F0
:10F6900008F4C6C1963109F040C2C2C19A3109F4DA
:10F6A0006CC09A3108F491C09B3109F45BC09D3164
:10F6B00009F033C29D81903359F48F81882311F46E
:10F6C0009EE11CC0813011F091E018C098E916C08D
:10F6D000892F807591F0903539F4E0E0F0E089E011
:10F6E0008093570094910AC0983539F4E3E0F0E034
:10F6F00089E080935700949101C090E01A821B82A8
:10F700008D818C831D829E831F8227E030E009C299
:10F710001A8288E08B8381E48C8386E58D8382E581
:10F720008E8389E48F8383E5888780E589878FE5E9
:10F730008A8782E38B872BE030E0F3C18A818139AD
:10F7400041F0823941F0803911F48FE005C080E04A
:10F7500003C082E001C08AE01A828B8344C0772410
:10F76000739482C08D81882311F48EE12CC0813086
:10F7700011F081E028C088E926C01A82E1E0F0E0BB
:10F7800089E08093570084918B831C8224E030E0D1
:10F79000C8C18B81803589F48C81883039F4E2E0EE
:10F7A000F0E089E08093570084910DC0E0E0F0E044
:10F7B00089E080935700849106C0E3E0F0E089E09F
:10F7C0008093570084911A82DFCF8D81836C99E0FA
:10F7D000E1E0F0E0082E90935700E89507B600FCB2
:10F7E000FDCF1A821B8223E030E09BC180EC8A832C
:10F7F000CE5CDE4F188219821A821B82C253D1401E
:10F800008EC18A8190E0A0E0B0E0582F44273327D2
:10F8100022278B8190E0A0E0B0E0DC0199278827C7
:10F82000282B392B4A2B5B2B8D8190E0A0E0B0E098
:10F83000282B392B4A2B5B2B8C8190E0A0E0B0E089
:10F84000BA2FA92F982F8827282B392B4A2B5B2BCF
:10F85000220F331F441F551FC05EDE4F288339839C
:10F860004A835B83C052D1401A8259C13A81C95C34
:10F87000DE4F3883C753D140CA5CDE4F1882C6536F
:10F88000D1408B81C82EDD24CA5CDE4F488159816E
:10F89000C653D140C42AD52A933109F082C0CE5C28
:10F8A000DE4F88819981AA81BB81C253D1408050AB
:10F8B000904CA340B04030F583E0CE5CDE4FE88052
:10F8C000F9800A811B81C253D140F70100935B008C
:10F8D00080935700E89507B600FCFDCFCE5CDE4F65
:10F8E000088119812A813B81C253D14000501F4FAA
:10F8F0002F4F3F4FCE5CDE4F088319832A833B8313
:10F90000C253D140C05EDE4F488159816A817B81FC
:10F91000C052D140DE011B9631E08C9111962C91A2
:10F9200011971296C75CDE4F2883C953D140C85C3B
:10F93000DE4F1882C853D14090E0C85CDE4FE881AA
:10F94000F981C853D1408E2B9F2B0C01FA01609393
:10F950005B0030935700E89511244E5F5F4F6F4F67
:10F960007F4F0EEFE02E0FEFF02ECE0CDF1CC114F8
:10F97000D10499F685E0C05EDE4F088119812A81A5
:10F980003B81C052D140F80120935B008093570027
:10F99000E89507B600FCFDCF81E180935700E8951C
:10F9A00035C0C05EDE4F88819981AA81BB81C0527B
:10F9B000D140B695A795979587957C018601ABE0D8
:10F9C000AA2EB12CAC0EBD1E0BC0D5016D915D01F0
:10F9D000C7010F947FFE0894E11CF11C01501040F8
:10F9E0000115110591F7A60160E070E0440F551F65
:10F9F000661F771FC05EDE4FE880F9800A811B8199
:10FA0000C052D1404E0D5F1D601F711F1A82C05E33
:10FA1000DE4F488359836A837B83C052D1407FC0C5
:10FA2000FA80C55CDE4FF882CB53D140C65CDE4F16
:10FA30001882CA53D1408B81C82EDD24C65CDE4FAC
:10FA400008811981CA53D140C02AD12A1A828981DA
:10FA5000BE016D5F7F4F843121F59601C05EDE4FA0
:10FA6000E880F9800A811B81C052D1400BBFF701A9
:10FA700087919691DB018C9311969C936E5F7F4FDB
:10FA8000D801C7010296A11DB11DC05EDE4F88835B
:10FA90009983AA83BB83C052D14022503040F1F6F3
:10FAA00036C0C05EDE4F288139814A815B81C052F9
:10FAB000D1400894C108D108760100E010E0089414
:10FAC000C11CD11C0894E11CF11C011D111DE20E8A
:10FAD000F31E041F151F21BDBB27A52F942F832FB5
:10FAE00082BD2F5F3F4F4F4F5F4FF89A80B5DB01CC
:10FAF0008D93BD012E153F054007510761F7C05E8C
:10FB0000DE4F288339834A835B83C052D1409601FC
:10FB10002D5F3F4FFB01108204C080EC8A8322E0FE
:10FB200030E08BE18093C6008091C00086FFFCCF5F
:10FB30008091C00080648093C000C15DDE4FF88179
:10FB4000CF52D140F093C6008091C00086FFFCCF19
:10FB50008091C00080648093C000432F3093C60022
:10FB60008091C00086FFFCCF8091C00080648093AC
:10FB7000C000922F2093C6008091C00086FFFCCF6A
:10FB80008091C00080648093C0008EE08093C600A6
:10FB90008091C00086FFFCCF8091C000806480937C
:10FBA000C00065E1C15DDE4FE880CF52D1406E25D7
:10FBB00069276427FE01319610C090819093C6009A
:10FBC0008091C00086FFFCCF31968091C000806498
:10FBD0008093C0006927215030402115310569F715
:10FBE0006093C6008091C00086FFFCCF8091C0006A
:10FBF00080648093C00085B1805885B9772081F4F6
:10FC0000C15DDE4F0881CF52D1400F5FC15DDE4F35
:10FC10000883CF52D14090E0A0E0B0E00D941AF4F8
:10FC200027982F9880E090E020ED37E0F901319798
:10FC3000F1F7019684369105C9F700008091C00064
:10FC40008D7F8093C00081E180935700E895EE2777
:10FC5000FF270994FFCF90E00D941AF497FB092E2B
:10FC600007260AD077FD04D02ED006D000201AF443
:10FC7000709561957F4F0895F6F7909581959F4F08
:10FC80000895A1E21A2EAA1BBB1BFD010DC0AA1FDD
:10FC9000BB1FEE1FFF1FA217B307E407F50720F0F5
:10FCA000A21BB30BE40BF50B661F771F881F991F70
:10FCB0001A9469F760957095809590959B01AC01B9
:10FCC000BD01CF010895AA1BBB1B51E107C0AA1FAC
:10FCD000BB1FA617B70710F0A61BB70B881F991FED
:10FCE0005A95A9F780959095BC01CD010895F99991
:10FCF000FECF92BD81BDF89A992780B50895262F31
:10FD0000F999FECF1FBA92BD81BD20BD0FB6F89400
:0EFD1000FA9AF99A0FBE01960895F894FFCF63
:040000033000E000E9
:00000001FF